{
  "address": "0x838FDEe9A1cB023984AF11a43C67c5607585C9f5",
  "abi": [
    {
      "inputs": [
        {
          "internalType": "string[]",
          "name": "_skus",
          "type": "string[]"
        }
      ],
      "stateMutability": "nonpayable",
      "type": "constructor"
    },
    {
      "anonymous": false,
      "inputs": [
        {
          "indexed": false,
          "internalType": "string",
          "name": "message",
          "type": "string"
        }
      ],
      "name": "LogMessage",
      "type": "event"
    },
    {
      "anonymous": false,
      "inputs": [
        {
          "indexed": false,
          "internalType": "address",
          "name": "client",
          "type": "address"
        },
        {
          "indexed": false,
          "internalType": "bytes32",
          "name": "orderId",
          "type": "bytes32"
        }
      ],
      "name": "OrderCreated",
      "type": "event"
    },
    {
      "anonymous": false,
      "inputs": [
        {
          "indexed": false,
          "internalType": "bytes32",
          "name": "orderId",
          "type": "bytes32"
        }
      ],
      "name": "OrderDeliver",
      "type": "event"
    },
    {
      "anonymous": false,
      "inputs": [
        {
          "indexed": true,
          "internalType": "address",
          "name": "previousOwner",
          "type": "address"
        },
        {
          "indexed": true,
          "internalType": "address",
          "name": "newOwner",
          "type": "address"
        }
      ],
      "name": "OwnershipTransferred",
      "type": "event"
    },
    {
      "inputs": [],
      "name": "addOrderToPreparationStage",
      "outputs": [],
      "stateMutability": "nonpayable",
      "type": "function"
    },
    {
      "inputs": [
        {
          "internalType": "bytes32",
          "name": "orderId",
          "type": "bytes32"
        }
      ],
      "name": "cancelOrder",
      "outputs": [],
      "stateMutability": "nonpayable",
      "type": "function"
    },
    {
      "inputs": [
        {
          "internalType": "address",
          "name": "",
          "type": "address"
        },
        {
          "internalType": "bytes32",
          "name": "",
          "type": "bytes32"
        }
      ],
      "name": "clientToOrders",
      "outputs": [
        {
          "internalType": "bytes32",
          "name": "orderId",
          "type": "bytes32"
        },
        {
          "internalType": "uint8",
          "name": "itemsQuantity",
          "type": "uint8"
        },
        {
          "internalType": "enum App.OrderStatus",
          "name": "orderStatus",
          "type": "uint8"
        },
        {
          "internalType": "enum App.OrderVerification",
          "name": "orderVerification",
          "type": "uint8"
        },
        {
          "internalType": "string",
          "name": "observations",
          "type": "string"
        },
        {
          "internalType": "uint256",
          "name": "price",
          "type": "uint256"
        },
        {
          "internalType": "bool",
          "name": "exist",
          "type": "bool"
        }
      ],
      "stateMutability": "view",
      "type": "function"
    },
    {
      "inputs": [
        {
          "internalType": "address",
          "name": "_clientAddress",
          "type": "address"
        },
        {
          "internalType": "string",
          "name": "_name",
          "type": "string"
        }
      ],
      "name": "createClient",
      "outputs": [],
      "stateMutability": "nonpayable",
      "type": "function"
    },
    {
      "inputs": [
        {
          "internalType": "address",
          "name": "_worker",
          "type": "address"
        },
        {
          "internalType": "string",
          "name": "_name",
          "type": "string"
        }
      ],
      "name": "createDispatcherWorker",
      "outputs": [],
      "stateMutability": "nonpayable",
      "type": "function"
    },
    {
      "inputs": [
        {
          "internalType": "uint8[]",
          "name": "quantities",
          "type": "uint8[]"
        }
      ],
      "name": "createOrder",
      "outputs": [],
      "stateMutability": "payable",
      "type": "function"
    },
    {
      "inputs": [
        {
          "internalType": "address",
          "name": "_worker",
          "type": "address"
        },
        {
          "internalType": "string",
          "name": "_name",
          "type": "string"
        }
      ],
      "name": "createWarehouseWorker",
      "outputs": [],
      "stateMutability": "nonpayable",
      "type": "function"
    },
    {
      "inputs": [],
      "name": "deliverOrder",
      "outputs": [],
      "stateMutability": "nonpayable",
      "type": "function"
    },
    {
      "inputs": [],
      "name": "dispatchOrder",
      "outputs": [],
      "stateMutability": "nonpayable",
      "type": "function"
    },
    {
      "inputs": [],
      "name": "dispatchedOrdersQueue",
      "outputs": [
        {
          "internalType": "contract Queue",
          "name": "",
          "type": "address"
        }
      ],
      "stateMutability": "view",
      "type": "function"
    },
    {
      "inputs": [
        {
          "internalType": "address",
          "name": "",
          "type": "address"
        }
      ],
      "name": "dispatcherToOrderId",
      "outputs": [
        {
          "internalType": "bytes32",
          "name": "",
          "type": "bytes32"
        }
      ],
      "stateMutability": "view",
      "type": "function"
    },
    {
      "inputs": [
        {
          "internalType": "bytes32",
          "name": "orderId",
          "type": "bytes32"
        }
      ],
      "name": "getOrder",
      "outputs": [
        {
          "components": [
            {
              "internalType": "bytes32",
              "name": "orderId",
              "type": "bytes32"
            },
            {
              "internalType": "uint8",
              "name": "itemsQuantity",
              "type": "uint8"
            },
            {
              "internalType": "enum App.OrderStatus",
              "name": "orderStatus",
              "type": "uint8"
            },
            {
              "internalType": "enum App.OrderVerification",
              "name": "orderVerification",
              "type": "uint8"
            },
            {
              "internalType": "string",
              "name": "observations",
              "type": "string"
            },
            {
              "internalType": "uint256",
              "name": "price",
              "type": "uint256"
            },
            {
              "internalType": "bool",
              "name": "exist",
              "type": "bool"
            }
          ],
          "internalType": "struct App.Order",
          "name": "",
          "type": "tuple"
        }
      ],
      "stateMutability": "view",
      "type": "function"
    },
    {
      "inputs": [
        {
          "internalType": "bytes32",
          "name": "orderId",
          "type": "bytes32"
        }
      ],
      "name": "getProductsByClient",
      "outputs": [
        {
          "components": [
            {
              "internalType": "string",
              "name": "sku",
              "type": "string"
            },
            {
              "internalType": "uint8",
              "name": "quantity",
              "type": "uint8"
            }
          ],
          "internalType": "struct App.Product[5]",
          "name": "products",
          "type": "tuple[5]"
        }
      ],
      "stateMutability": "view",
      "type": "function"
    },
    {
      "inputs": [
        {
          "internalType": "bytes32",
          "name": "orderId",
          "type": "bytes32"
        },
        {
          "internalType": "enum App.OrderVerification",
          "name": "reason",
          "type": "uint8"
        }
      ],
      "name": "markOrderAsReceivedWithDiscrepancy",
      "outputs": [],
      "stateMutability": "nonpayable",
      "type": "function"
    },
    {
      "inputs": [],
      "name": "moveOrderToDeliverStage",
      "outputs": [],
      "stateMutability": "nonpayable",
      "type": "function"
    },
    {
      "inputs": [],
      "name": "owner",
      "outputs": [
        {
          "internalType": "address",
          "name": "",
          "type": "address"
        }
      ],
      "stateMutability": "view",
      "type": "function"
    },
    {
      "inputs": [],
      "name": "pendingOrdersQueue",
      "outputs": [
        {
          "internalType": "contract Queue",
          "name": "",
          "type": "address"
        }
      ],
      "stateMutability": "view",
      "type": "function"
    },
    {
      "inputs": [],
      "name": "renounceOwnership",
      "outputs": [],
      "stateMutability": "nonpayable",
      "type": "function"
    },
    {
      "inputs": [
        {
          "internalType": "address",
          "name": "newOwner",
          "type": "address"
        }
      ],
      "name": "transferOwnership",
      "outputs": [],
      "stateMutability": "nonpayable",
      "type": "function"
    },
    {
      "inputs": [
        {
          "internalType": "bytes32",
          "name": "orderId",
          "type": "bytes32"
        }
      ],
      "name": "verifyOrder",
      "outputs": [],
      "stateMutability": "nonpayable",
      "type": "function"
    },
    {
      "inputs": [
        {
          "internalType": "address",
          "name": "",
          "type": "address"
        }
      ],
      "name": "warehouserToOrderId",
      "outputs": [
        {
          "internalType": "bytes32",
          "name": "",
          "type": "bytes32"
        }
      ],
      "stateMutability": "view",
      "type": "function"
    }
  ],
  "transactionHash": "0x952ef9bf7b7b4b207432952f59520618f1d16dad332945bd61900b6041b53f32",
  "args": [
    [
      "01500",
      "02500",
      "03150",
      "04100",
      "05100"
    ]
  ],
  "numDeployments": 1,
  "solcInputHash": "3774ef79a8d63939f733d4ac92ba87b7",
  "bytecode": "0x60806040523480156200001157600080fd5b50604051620069a6380380620069a6833981810160405281019062000037919062000669565b620000576200004b6200029360201b60201c565b6200029b60201b60201c565b60405162000065906200035f565b604051809103906000f08015801562000082573d6000803e3d6000fd5b50600160006101000a81548173ffffffffffffffffffffffffffffffffffffffff021916908373ffffffffffffffffffffffffffffffffffffffff160217905550604051620000d1906200035f565b604051809103906000f080158015620000ee573d6000803e3d6000fd5b50600260006101000a81548173ffffffffffffffffffffffffffffffffffffffff021916908373ffffffffffffffffffffffffffffffffffffffff1602179055506040516200013d906200036d565b604051809103906000f0801580156200015a573d6000803e3d6000fd5b50600360006101000a81548173ffffffffffffffffffffffffffffffffffffffff021916908373ffffffffffffffffffffffffffffffffffffffff160217905550604051620001a9906200037b565b604051809103906000f080158015620001c6573d6000803e3d6000fd5b50600460006101000a81548173ffffffffffffffffffffffffffffffffffffffff021916908373ffffffffffffffffffffffffffffffffffffffff160217905550604051620002159062000389565b604051809103906000f08015801562000232573d6000803e3d6000fd5b50600560006101000a81548173ffffffffffffffffffffffffffffffffffffffff021916908373ffffffffffffffffffffffffffffffffffffffff16021790555080600690805190602001906200028b92919062000397565b505062000872565b600033905090565b60008060009054906101000a900473ffffffffffffffffffffffffffffffffffffffff169050816000806101000a81548173ffffffffffffffffffffffffffffffffffffffff021916908373ffffffffffffffffffffffffffffffffffffffff1602179055508173ffffffffffffffffffffffffffffffffffffffff168173ffffffffffffffffffffffffffffffffffffffff167f8be0079c531659141344cd1fd0a4f28419497f9722a3daafe3b4186f6b6457e060405160405180910390a35050565b610bf8806200472883390190565b610782806200532083390190565b6107828062005aa283390190565b610782806200622483390190565b828054828255906000526020600020908101928215620003eb579160200282015b82811115620003ea578251829080519060200190620003d9929190620003fe565b5091602001919060010190620003b8565b5b509050620003fa91906200048f565b5090565b8280546200040c906200077e565b90600052602060002090601f0160209004810192826200043057600085556200047c565b82601f106200044b57805160ff19168380011785556200047c565b828001600101855582156200047c579182015b828111156200047b5782518255916020019190600101906200045e565b5b5090506200048b9190620004b7565b5090565b5b80821115620004b35760008181620004a99190620004d6565b5060010162000490565b5090565b5b80821115620004d2576000816000905550600101620004b8565b5090565b508054620004e4906200077e565b6000825580601f10620004f8575062000519565b601f016020900490600052602060002090810190620005189190620004b7565b5b50565b6000620005336200052d84620006e3565b620006ba565b905080838252602082019050828560208602820111156200055957620005586200084d565b5b60005b85811015620005ae57815167ffffffffffffffff81111562000583576200058262000848565b5b80860162000592898262000636565b855260208501945060208401935050506001810190506200055c565b5050509392505050565b6000620005cf620005c98462000712565b620006ba565b905082815260208101848484011115620005ee57620005ed62000852565b5b620005fb84828562000748565b509392505050565b600082601f8301126200061b576200061a62000848565b5b81516200062d8482602086016200051c565b91505092915050565b600082601f8301126200064e576200064d62000848565b5b815162000660848260208601620005b8565b91505092915050565b6000602082840312156200068257620006816200085c565b5b600082015167ffffffffffffffff811115620006a357620006a262000857565b5b620006b18482850162000603565b91505092915050565b6000620006c6620006d9565b9050620006d48282620007b4565b919050565b6000604051905090565b600067ffffffffffffffff82111562000701576200070062000819565b5b602082029050602081019050919050565b600067ffffffffffffffff82111562000730576200072f62000819565b5b6200073b8262000861565b9050602081019050919050565b60005b83811015620007685780820151818401526020810190506200074b565b8381111562000778576000848401525b50505050565b600060028204905060018216806200079757607f821691505b60208210811415620007ae57620007ad620007ea565b5b50919050565b620007bf8262000861565b810181811067ffffffffffffffff82111715620007e157620007e062000819565b5b80604052505050565b7f4e487b7100000000000000000000000000000000000000000000000000000000600052602260045260246000fd5b7f4e487b7100000000000000000000000000000000000000000000000000000000600052604160045260246000fd5b600080fd5b600080fd5b600080fd5b600080fd5b600080fd5b6000601f19601f8301169050919050565b613ea680620008826000396000f3fe60806040526004361061012a5760003560e01c80637489ec23116100ab578063bc61c9201161006f578063bc61c920146103c1578063ca0987e9146103d8578063de0f6a62146103ef578063e08d085d14610418578063e1a00d991461042f578063f2fde38b1461046c5761012a565b80637489ec23146102c45780637b795ec6146102ed5780638658659a1461032a578063881489c41461036d5780638da5cb5b146103965761012a565b806353e7006d116100f257806353e7006d146101dd5780635778472a1461020857806366e2374d14610245578063715018a614610282578063735d138e146102995761012a565b80630af316dc1461012f57806310c6d15414610146578063169fb3281461016f5780632093e7d114610198578063385d4192146101c1575b600080fd5b34801561013b57600080fd5b50610144610495565b005b34801561015257600080fd5b5061016d60048036038101906101689190612c86565b610700565b005b34801561017b57600080fd5b5061019660048036038101906101919190612d58565b6107b0565b005b3480156101a457600080fd5b506101bf60048036038101906101ba9190612db2565b610930565b005b6101db60048036038101906101d69190612ce2565b610c57565b005b3480156101e957600080fd5b506101f261119a565b6040516101ff9190613501565b60405180910390f35b34801561021457600080fd5b5061022f600480360381019061022a9190612d58565b6111c0565b60405161023c919061369c565b60405180910390f35b34801561025157600080fd5b5061026c60048036038101906102679190612d58565b611337565b604051610279919061344e565b60405180910390f35b34801561028e57600080fd5b5061029761143a565b005b3480156102a557600080fd5b506102ae61144e565b6040516102bb9190613501565b60405180910390f35b3480156102d057600080fd5b506102eb60048036038101906102e69190612d58565b611474565b005b3480156102f957600080fd5b50610314600480360381019061030f9190612c19565b611744565b6040516103219190613470565b60405180910390f35b34801561033657600080fd5b50610351600480360381019061034c9190612c46565b61175c565b604051610364979695949392919061348b565b60405180910390f35b34801561037957600080fd5b50610394600480360381019061038f9190612c86565b611867565b005b3480156103a257600080fd5b506103ab61191f565b6040516103b8919061337a565b60405180910390f35b3480156103cd57600080fd5b506103d6611948565b005b3480156103e457600080fd5b506103ed611b5a565b005b3480156103fb57600080fd5b5061041660048036038101906104119190612c86565b611f32565b005b34801561042457600080fd5b5061042d611fea565b005b34801561043b57600080fd5b5061045660048036038101906104519190612c19565b6122ab565b6040516104639190613470565b60405180910390f35b34801561047857600080fd5b50610493600480360381019061048e9190612c19565b6122c3565b005b600460009054906101000a900473ffffffffffffffffffffffffffffffffffffffff1673ffffffffffffffffffffffffffffffffffffffff16634dfefc4b336040518263ffffffff1660e01b81526004016104f0919061337a565b60206040518083038186803b15801561050857600080fd5b505afa15801561051c573d6000803e3d6000fd5b505050506040513d601f19601f820116820180604052508101906105409190612d2b565b61057f576040517f08c379a00000000000000000000000000000000000000000000000000000000081526004016105769061357c565b60405180910390fd5b6000801b600b60003373ffffffffffffffffffffffffffffffffffffffff1673ffffffffffffffffffffffffffffffffffffffff168152602001908152602001600020541415610604576040517f08c379a00000000000000000000000000000000000000000000000000000000081526004016105fb9061363c565b60405180910390fd5b6000600b60003373ffffffffffffffffffffffffffffffffffffffff1673ffffffffffffffffffffffffffffffffffffffff168152602001908152602001600020549050600b60003373ffffffffffffffffffffffffffffffffffffffff1673ffffffffffffffffffffffffffffffffffffffff16815260200190815260200160002060009055600061069682612347565b905060058160010160016101000a81548160ff021916908360068111156106c0576106bf6139dc565b5b02179055507f2c48913148e50a68a295001db6894d344055f03426662e82595dfae4edc6d618826040516106f49190613470565b60405180910390a15050565b60006040518060400160405280838152602001600115158152509050600560009054906101000a900473ffffffffffffffffffffffffffffffffffffffff1673ffffffffffffffffffffffffffffffffffffffff16636d002ada84836040518363ffffffff1660e01b81526004016107799291906133be565b600060405180830381600087803b15801561079357600080fd5b505af11580156107a7573d6000803e3d6000fd5b50505050505050565b600560009054906101000a900473ffffffffffffffffffffffffffffffffffffffff1673ffffffffffffffffffffffffffffffffffffffff16634dfefc4b336040518263ffffffff1660e01b815260040161080b919061337a565b60206040518083038186803b15801561082357600080fd5b505afa158015610837573d6000803e3d6000fd5b505050506040513d601f19601f8201168201806040525081019061085b9190612d2b565b61089a576040517f08c379a0000000000000000000000000000000000000000000000000000000008152600401610891906135fc565b60405180910390fd5b60006108a582612347565b905060068160010160016101000a81548160ff021916908360068111156108cf576108ce6139dc565b5b021790555060006108de61191f565b90508073ffffffffffffffffffffffffffffffffffffffff166108fc83600301549081150290604051600060405180830381858888f1935050505015801561092a573d6000803e3d6000fd5b50505050565b600560009054906101000a900473ffffffffffffffffffffffffffffffffffffffff1673ffffffffffffffffffffffffffffffffffffffff16634dfefc4b336040518263ffffffff1660e01b815260040161098b919061337a565b60206040518083038186803b1580156109a357600080fd5b505afa1580156109b7573d6000803e3d6000fd5b505050506040513d601f19601f820116820180604052508101906109db9190612d2b565b610a1a576040517f08c379a0000000000000000000000000000000000000000000000000000000008152600401610a11906135fc565b60405180910390fd5b600760003373ffffffffffffffffffffffffffffffffffffffff1673ffffffffffffffffffffffffffffffffffffffff168152602001908152602001600020600083815260200190815260200160002060040160009054906101000a900460ff16610aba576040517f08c379a0000000000000000000000000000000000000000000000000000000008152600401610ab19061359c565b60405180910390fd5b60056006811115610ace57610acd6139dc565b5b600760003373ffffffffffffffffffffffffffffffffffffffff1673ffffffffffffffffffffffffffffffffffffffff168152602001908152602001600020600084815260200190815260200160002060010160019054906101000a900460ff166006811115610b4157610b406139dc565b5b14610b81576040517f08c379a0000000000000000000000000000000000000000000000000000000008152600401610b789061367c565b60405180910390fd5b60006003811115610b9557610b946139dc565b5b816003811115610ba857610ba76139dc565b5b10158015610bda5750600380811115610bc457610bc36139dc565b5b816003811115610bd757610bd66139dc565b5b11155b610c19576040517f08c379a0000000000000000000000000000000000000000000000000000000008152600401610c109061353c565b60405180910390fd5b6000610c2483612347565b9050818160010160026101000a81548160ff02191690836003811115610c4d57610c4c6139dc565b5b0217905550505050565b600560009054906101000a900473ffffffffffffffffffffffffffffffffffffffff1673ffffffffffffffffffffffffffffffffffffffff16634dfefc4b336040518263ffffffff1660e01b8152600401610cb2919061337a565b60206040518083038186803b158015610cca57600080fd5b505afa158015610cde573d6000803e3d6000fd5b505050506040513d601f19601f82011682018060405250810190610d029190612d2b565b610d41576040517f08c379a0000000000000000000000000000000000000000000000000000000008152600401610d38906135fc565b60405180910390fd5b6000803342604051602001610d5792919061334e565b6040516020818303038152906040528051906020012090506040518060e00160405280828152602001600060ff16815260200160006006811115610d9e57610d9d6139dc565b5b815260200160006003811115610db757610db66139dc565b5b815260200160405180602001604052806000815250815260200134815260200160011515815250600760003373ffffffffffffffffffffffffffffffffffffffff1673ffffffffffffffffffffffffffffffffffffffff16815260200190815260200160002060008381526020019081526020016000206000820151816000015560208201518160010160006101000a81548160ff021916908360ff16021790555060408201518160010160016101000a81548160ff02191690836006811115610e8457610e836139dc565b5b021790555060608201518160010160026101000a81548160ff02191690836003811115610eb457610eb36139dc565b5b02179055506080820151816002019080519060200190610ed5929190612922565b5060a0820151816003015560c08201518160040160006101000a81548160ff02191690831515021790555090505060005b60058160ff16101561101057600060068260ff1681548110610f2b57610f2a613a3a565b5b906000526020600020018054610f40906138f2565b80601f0160208091040260200160405190810160405280929190818152602001828054610f6c906138f2565b8015610fb95780601f10610f8e57610100808354040283529160200191610fb9565b820191906000526020600020905b815481529060010190602001808311610f9c57829003601f168201915b505050505090506000858360ff1681518110610fd857610fd7613a3a565b5b60200260200101519050610fed84838361251b565b8085610ff9919061379a565b94505050808061100890613955565b915050610f06565b5081600760003373ffffffffffffffffffffffffffffffffffffffff1673ffffffffffffffffffffffffffffffffffffffff168152602001908152602001600020600083815260200190815260200160002060010160006101000a81548160ff021916908360ff160217905550600160009054906101000a900473ffffffffffffffffffffffffffffffffffffffff1673ffffffffffffffffffffffffffffffffffffffff1663b4de3e23826040518263ffffffff1660e01b81526004016110d89190613470565b600060405180830381600087803b1580156110f257600080fd5b505af1158015611106573d6000803e3d6000fd5b50505050336008600083815260200190815260200160002060006101000a81548173ffffffffffffffffffffffffffffffffffffffff021916908373ffffffffffffffffffffffffffffffffffffffff1602179055507ff0e83652aa3c9cbaad5103639853e5c74e518771c5d225b2e37b76550ad0e189338260405161118d929190613395565b60405180910390a1505050565b600260009054906101000a900473ffffffffffffffffffffffffffffffffffffffff1681565b6111c86129a8565b6111d182612347565b6040518060e0016040529081600082015481526020016001820160009054906101000a900460ff1660ff1660ff1681526020016001820160019054906101000a900460ff166006811115611228576112276139dc565b5b600681111561123a576112396139dc565b5b81526020016001820160029054906101000a900460ff166003811115611263576112626139dc565b5b6003811115611275576112746139dc565b5b8152602001600282018054611289906138f2565b80601f01602080910402602001604051908101604052809291908181526020018280546112b5906138f2565b80156113025780601f106112d757610100808354040283529160200191611302565b820191906000526020600020905b8154815290600101906020018083116112e557829003601f168201915b50505050508152602001600382015481526020016004820160009054906101000a900460ff1615151515815250509050919050565b61133f612a11565b600560009054906101000a900473ffffffffffffffffffffffffffffffffffffffff1673ffffffffffffffffffffffffffffffffffffffff16634dfefc4b336040518263ffffffff1660e01b815260040161139a919061337a565b60206040518083038186803b1580156113b257600080fd5b505afa1580156113c6573d6000803e3d6000fd5b505050506040513d601f19601f820116820180604052508101906113ea9190612d2b565b611429576040517f08c379a0000000000000000000000000000000000000000000000000000000008152600401611420906135fc565b60405180910390fd5b61143382336125ba565b9050919050565b6114426127d8565b61144c6000612856565b565b600160009054906101000a900473ffffffffffffffffffffffffffffffffffffffff1681565b600560009054906101000a900473ffffffffffffffffffffffffffffffffffffffff1673ffffffffffffffffffffffffffffffffffffffff16634dfefc4b336040518263ffffffff1660e01b81526004016114cf919061337a565b60206040518083038186803b1580156114e757600080fd5b505afa1580156114fb573d6000803e3d6000fd5b505050506040513d601f19601f8201168201806040525081019061151f9190612d2b565b61155e576040517f08c379a0000000000000000000000000000000000000000000000000000000008152600401611555906135fc565b60405180910390fd5b600760003373ffffffffffffffffffffffffffffffffffffffff1673ffffffffffffffffffffffffffffffffffffffff168152602001908152602001600020600082815260200190815260200160002060040160009054906101000a900460ff166115fe576040517f08c379a00000000000000000000000000000000000000000000000000000000081526004016115f59061359c565b60405180910390fd5b60006006811115611612576116116139dc565b5b600760003373ffffffffffffffffffffffffffffffffffffffff1673ffffffffffffffffffffffffffffffffffffffff168152602001908152602001600020600083815260200190815260200160002060010160019054906101000a900460ff166006811115611685576116846139dc565b5b146116c5576040517f08c379a00000000000000000000000000000000000000000000000000000000081526004016116bc9061361c565b60405180910390fd5b6001600760003373ffffffffffffffffffffffffffffffffffffffff1673ffffffffffffffffffffffffffffffffffffffff168152602001908152602001600020600083815260200190815260200160002060010160016101000a81548160ff0219169083600681111561173c5761173b6139dc565b5b021790555050565b600a6020528060005260406000206000915090505481565b6007602052816000526040600020602052806000526040600020600091509150508060000154908060010160009054906101000a900460ff16908060010160019054906101000a900460ff16908060010160029054906101000a900460ff16908060020180546117cb906138f2565b80601f01602080910402602001604051908101604052809291908181526020018280546117f7906138f2565b80156118445780601f1061181957610100808354040283529160200191611844565b820191906000526020600020905b81548152906001019060200180831161182757829003601f168201915b5050505050908060030154908060040160009054906101000a900460ff16905087565b61186f6127d8565b60006040518060400160405280838152602001600115158152509050600460009054906101000a900473ffffffffffffffffffffffffffffffffffffffff1673ffffffffffffffffffffffffffffffffffffffff1663d07f119484836040518363ffffffff1660e01b81526004016118e89291906133ee565b600060405180830381600087803b15801561190257600080fd5b505af1158015611916573d6000803e3d6000fd5b50505050505050565b60008060009054906101000a900473ffffffffffffffffffffffffffffffffffffffff16905090565b600460009054906101000a900473ffffffffffffffffffffffffffffffffffffffff1673ffffffffffffffffffffffffffffffffffffffff16634dfefc4b336040518263ffffffff1660e01b81526004016119a3919061337a565b60206040518083038186803b1580156119bb57600080fd5b505afa1580156119cf573d6000803e3d6000fd5b505050506040513d601f19601f820116820180604052508101906119f39190612d2b565b611a32576040517f08c379a0000000000000000000000000000000000000000000000000000000008152600401611a299061357c565b60405180910390fd5b6000600260009054906101000a900473ffffffffffffffffffffffffffffffffffffffff1673ffffffffffffffffffffffffffffffffffffffff1663957908d16040518163ffffffff1660e01b8152600401602060405180830381600087803b158015611a9e57600080fd5b505af1158015611ab2573d6000803e3d6000fd5b505050506040513d601f19601f82011682018060405250810190611ad69190612d85565b90506000611ae382612347565b905060048160010160016101000a81548160ff02191690836006811115611b0d57611b0c6139dc565b5b021790555081600b60003373ffffffffffffffffffffffffffffffffffffffff1673ffffffffffffffffffffffffffffffffffffffff168152602001908152602001600020819055505050565b600360009054906101000a900473ffffffffffffffffffffffffffffffffffffffff1673ffffffffffffffffffffffffffffffffffffffff16634dfefc4b336040518263ffffffff1660e01b8152600401611bb5919061337a565b60206040518083038186803b158015611bcd57600080fd5b505afa158015611be1573d6000803e3d6000fd5b505050506040513d601f19601f82011682018060405250810190611c059190612d2b565b611c44576040517f08c379a0000000000000000000000000000000000000000000000000000000008152600401611c3b9061355c565b60405180910390fd5b6000805b6000600160009054906101000a900473ffffffffffffffffffffffffffffffffffffffff1673ffffffffffffffffffffffffffffffffffffffff1663de8fa4316040518163ffffffff1660e01b815260040160206040518083038186803b158015611cb257600080fd5b505afa158015611cc6573d6000803e3d6000fd5b505050506040513d601f19601f82011682018060405250810190611cea9190612df2565b118015611cf5575081155b15611e3457600160009054906101000a900473ffffffffffffffffffffffffffffffffffffffff1673ffffffffffffffffffffffffffffffffffffffff1663957908d16040518163ffffffff1660e01b8152600401602060405180830381600087803b158015611d6457600080fd5b505af1158015611d78573d6000803e3d6000fd5b505050506040513d601f19601f82011682018060405250810190611d9c9190612d85565b905060016006811115611db257611db16139dc565b5b600760003373ffffffffffffffffffffffffffffffffffffffff1673ffffffffffffffffffffffffffffffffffffffff168152602001908152602001600020600083815260200190815260200160002060010160019054906101000a900460ff166006811115611e2557611e246139dc565b5b14611e2f57600191505b611c48565b8115611ebe576000611e4582612347565b905060028160010160016101000a81548160ff02191690836006811115611e6f57611e6e6139dc565b5b021790555081600a60003373ffffffffffffffffffffffffffffffffffffffff1673ffffffffffffffffffffffffffffffffffffffff1681526020019081526020016000208190555050611f2e565b7f96561394bac381230de4649200e8831afcab1f451881bbade9ef209f6dd30480604051611eeb906135dc565b60405180910390a16040517f08c379a0000000000000000000000000000000000000000000000000000000008152600401611f25906135dc565b60405180910390fd5b5050565b611f3a6127d8565b60006040518060400160405280838152602001600115158152509050600360009054906101000a900473ffffffffffffffffffffffffffffffffffffffff1673ffffffffffffffffffffffffffffffffffffffff16637d404b5f84836040518363ffffffff1660e01b8152600401611fb392919061341e565b600060405180830381600087803b158015611fcd57600080fd5b505af1158015611fe1573d6000803e3d6000fd5b50505050505050565b600360009054906101000a900473ffffffffffffffffffffffffffffffffffffffff1673ffffffffffffffffffffffffffffffffffffffff16634dfefc4b336040518263ffffffff1660e01b8152600401612045919061337a565b60206040518083038186803b15801561205d57600080fd5b505afa158015612071573d6000803e3d6000fd5b505050506040513d601f19601f820116820180604052508101906120959190612d2b565b6120d4576040517f08c379a00000000000000000000000000000000000000000000000000000000081526004016120cb9061355c565b60405180910390fd5b6000801b600a60003373ffffffffffffffffffffffffffffffffffffffff1673ffffffffffffffffffffffffffffffffffffffff168152602001908152602001600020541415612159576040517f08c379a00000000000000000000000000000000000000000000000000000000081526004016121509061363c565b60405180910390fd5b6000600a60003373ffffffffffffffffffffffffffffffffffffffff1673ffffffffffffffffffffffffffffffffffffffff168152602001908152602001600020549050600a60003373ffffffffffffffffffffffffffffffffffffffff1673ffffffffffffffffffffffffffffffffffffffff1681526020019081526020016000206000905560006121eb82612347565b905060038160010160016101000a81548160ff02191690836006811115612215576122146139dc565b5b0217905550600260009054906101000a900473ffffffffffffffffffffffffffffffffffffffff1673ffffffffffffffffffffffffffffffffffffffff1663b4de3e23836040518263ffffffff1660e01b81526004016122759190613470565b600060405180830381600087803b15801561228f57600080fd5b505af11580156122a3573d6000803e3d6000fd5b505050505050565b600b6020528060005260406000206000915090505481565b6122cb6127d8565b600073ffffffffffffffffffffffffffffffffffffffff168173ffffffffffffffffffffffffffffffffffffffff16141561233b576040517f08c379a00000000000000000000000000000000000000000000000000000000081526004016123329061351c565b60405180910390fd5b61234481612856565b50565b60008073ffffffffffffffffffffffffffffffffffffffff166008600084815260200190815260200160002060009054906101000a900473ffffffffffffffffffffffffffffffffffffffff1673ffffffffffffffffffffffffffffffffffffffff1614156123eb576040517f08c379a00000000000000000000000000000000000000000000000000000000081526004016123e29061365c565b60405180910390fd5b60006008600084815260200190815260200160002060009054906101000a900473ffffffffffffffffffffffffffffffffffffffff169050600760008273ffffffffffffffffffffffffffffffffffffffff1673ffffffffffffffffffffffffffffffffffffffff168152602001908152602001600020600084815260200190815260200160002060040160009054906101000a900460ff166124c3576040517f08c379a00000000000000000000000000000000000000000000000000000000081526004016124ba9061359c565b60405180910390fd5b600760008273ffffffffffffffffffffffffffffffffffffffff1673ffffffffffffffffffffffffffffffffffffffff1681526020019081526020016000206000848152602001908152602001600020915050919050565b600060405180604001604052808481526020018360ff168152509050600960008581526020019081526020016000208190806001815401808255809150506001900390600052602060002090600202016000909190919091506000820151816000019080519060200190612590929190612922565b5060208201518160010160006101000a81548160ff021916908360ff160217905550505050505050565b6125c2612a11565b600760008373ffffffffffffffffffffffffffffffffffffffff1673ffffffffffffffffffffffffffffffffffffffff168152602001908152602001600020600084815260200190815260200160002060040160009054906101000a900460ff16612662576040517f08c379a00000000000000000000000000000000000000000000000000000000081526004016126599061359c565b60405180910390fd5b61266a612a11565b60005b60058160ff1610156127cd576000600960008781526020019081526020016000208260ff16815481106126a3576126a2613a3a565b5b906000526020600020906002020160000180546126bf906138f2565b80601f01602080910402602001604051908101604052809291908181526020018280546126eb906138f2565b80156127385780601f1061270d57610100808354040283529160200191612738565b820191906000526020600020905b81548152906001019060200180831161271b57829003601f168201915b505050505090506000600960008881526020019081526020016000208360ff168154811061276957612768613a3a565b5b906000526020600020906002020160010160009054906101000a900460ff16905060405180604001604052808381526020018260ff16815250848460ff16600581106127b8576127b7613a3a565b5b6020020181905250826001019250505061266d565b508091505092915050565b6127e061291a565b73ffffffffffffffffffffffffffffffffffffffff166127fe61191f565b73ffffffffffffffffffffffffffffffffffffffff1614612854576040517f08c379a000000000000000000000000000000000000000000000000000000000815260040161284b906135bc565b60405180910390fd5b565b60008060009054906101000a900473ffffffffffffffffffffffffffffffffffffffff169050816000806101000a81548173ffffffffffffffffffffffffffffffffffffffff021916908373ffffffffffffffffffffffffffffffffffffffff1602179055508173ffffffffffffffffffffffffffffffffffffffff168173ffffffffffffffffffffffffffffffffffffffff167f8be0079c531659141344cd1fd0a4f28419497f9722a3daafe3b4186f6b6457e060405160405180910390a35050565b600033905090565b82805461292e906138f2565b90600052602060002090601f0160209004810192826129505760008555612997565b82601f1061296957805160ff1916838001178555612997565b82800160010185558215612997579182015b8281111561299657825182559160200191906001019061297b565b5b5090506129a49190612a3e565b5090565b6040518060e0016040528060008019168152602001600060ff168152602001600060068111156129db576129da6139dc565b5b8152602001600060038111156129f4576129f36139dc565b5b815260200160608152602001600081526020016000151581525090565b6040518060a001604052806005905b612a28612a5b565b815260200190600190039081612a205790505090565b5b80821115612a57576000816000905550600101612a3f565b5090565b604051806040016040528060608152602001600060ff1681525090565b6000612a8b612a86846136e3565b6136be565b90508083825260208201905082856020860282011115612aae57612aad613a9d565b5b60005b85811015612ade5781612ac48882612c04565b845260208401935060208301925050600181019050612ab1565b5050509392505050565b6000612afb612af68461370f565b6136be565b905082815260208101848484011115612b1757612b16613aa2565b5b612b228482856138b0565b509392505050565b600081359050612b3981613ded565b92915050565b600082601f830112612b5457612b53613a98565b5b8135612b64848260208601612a78565b91505092915050565b600081519050612b7c81613e04565b92915050565b600081359050612b9181613e1b565b92915050565b600081519050612ba681613e1b565b92915050565b600081359050612bbb81613e32565b92915050565b600082601f830112612bd657612bd5613a98565b5b8135612be6848260208601612ae8565b91505092915050565b600081519050612bfe81613e42565b92915050565b600081359050612c1381613e59565b92915050565b600060208284031215612c2f57612c2e613aac565b5b6000612c3d84828501612b2a565b91505092915050565b60008060408385031215612c5d57612c5c613aac565b5b6000612c6b85828601612b2a565b9250506020612c7c85828601612b82565b9150509250929050565b60008060408385031215612c9d57612c9c613aac565b5b6000612cab85828601612b2a565b925050602083013567ffffffffffffffff811115612ccc57612ccb613aa7565b5b612cd885828601612bc1565b9150509250929050565b600060208284031215612cf857612cf7613aac565b5b600082013567ffffffffffffffff811115612d1657612d15613aa7565b5b612d2284828501612b3f565b91505092915050565b600060208284031215612d4157612d40613aac565b5b6000612d4f84828501612b6d565b91505092915050565b600060208284031215612d6e57612d6d613aac565b5b6000612d7c84828501612b82565b91505092915050565b600060208284031215612d9b57612d9a613aac565b5b6000612da984828501612b97565b91505092915050565b60008060408385031215612dc957612dc8613aac565b5b6000612dd785828601612b82565b9250506020612de885828601612bac565b9150509250929050565b600060208284031215612e0857612e07613aac565b5b6000612e1684828501612bef565b91505092915050565b6000612e2b8383613244565b905092915050565b612e3c816137d1565b82525050565b612e53612e4e826137d1565b61397f565b82525050565b6000612e648261374a565b612e6e818561376d565b935083602082028501612e8085613740565b8060005b85811015612ebc5784840389528151612e9d8582612e1f565b9450612ea883613760565b925060208a01995050600181019050612e84565b50829750879550505050505092915050565b612ed7816137e3565b82525050565b612ee6816137e3565b82525050565b612ef5816137ef565b82525050565b612f04816137ef565b82525050565b612f1381613856565b82525050565b612f2281613868565b82525050565b612f3181613868565b82525050565b612f408161387a565b82525050565b612f4f8161387a565b82525050565b6000612f6082613755565b612f6a8185613778565b9350612f7a8185602086016138bf565b612f8381613ab1565b840191505092915050565b6000612f9982613755565b612fa38185613789565b9350612fb38185602086016138bf565b612fbc81613ab1565b840191505092915050565b6000612fd4602683613789565b9150612fdf82613acf565b604082019050919050565b6000612ff7602d83613789565b915061300282613b1e565b604082019050919050565b600061301a602383613789565b915061302582613b6d565b604082019050919050565b600061303d602483613789565b915061304882613bbc565b604082019050919050565b6000613060601783613789565b915061306b82613c0b565b602082019050919050565b6000613083602083613789565b915061308e82613c34565b602082019050919050565b60006130a6602483613789565b91506130b182613c5d565b604082019050919050565b60006130c9601983613789565b91506130d482613cac565b602082019050919050565b60006130ec601c83613789565b91506130f782613cd5565b602082019050919050565b600061310f602083613789565b915061311a82613cfe565b602082019050919050565b6000613132601783613789565b915061313d82613d27565b602082019050919050565b6000613155604f83613789565b915061316082613d50565b606082019050919050565b600060408301600083015184820360008601526131888282612f55565b915050602083015161319d6020860182612ece565b508091505092915050565b600060e0830160008301516131c06000860182612eec565b5060208301516131d36020860182613330565b5060408301516131e66040860182612f19565b5060608301516131f96060860182612f37565b50608083015184820360808601526132118282612f55565b91505060a083015161322660a08601826132fb565b5060c083015161323960c0860182612ece565b508091505092915050565b600060408301600083015184820360008601526132618282612f55565b91505060208301516132766020860182613330565b508091505092915050565b6000604083016000830151848203600086015261329e8282612f55565b91505060208301516132b36020860182612ece565b508091505092915050565b600060408301600083015184820360008601526132db8282612f55565b91505060208301516132f06020860182612ece565b508091505092915050565b6133048161383f565b82525050565b6133138161383f565b82525050565b61332a6133258261383f565b6139a3565b82525050565b61333981613849565b82525050565b61334881613849565b82525050565b600061335a8285612e42565b60148201915061336a8284613319565b6020820191508190509392505050565b600060208201905061338f6000830184612e33565b92915050565b60006040820190506133aa6000830185612e33565b6133b76020830184612efb565b9392505050565b60006040820190506133d36000830185612e33565b81810360208301526133e5818461316b565b90509392505050565b60006040820190506134036000830185612e33565b81810360208301526134158184613281565b90509392505050565b60006040820190506134336000830185612e33565b818103602083015261344581846132be565b90509392505050565b600060208201905081810360008301526134688184612e59565b905092915050565b60006020820190506134856000830184612efb565b92915050565b600060e0820190506134a0600083018a612efb565b6134ad602083018961333f565b6134ba6040830188612f28565b6134c76060830187612f46565b81810360808301526134d98186612f8e565b90506134e860a083018561330a565b6134f560c0830184612edd565b98975050505050505050565b60006020820190506135166000830184612f0a565b92915050565b6000602082019050818103600083015261353581612fc7565b9050919050565b6000602082019050818103600083015261355581612fea565b9050919050565b600060208201905081810360008301526135758161300d565b9050919050565b6000602082019050818103600083015261359581613030565b9050919050565b600060208201905081810360008301526135b581613053565b9050919050565b600060208201905081810360008301526135d581613076565b9050919050565b600060208201905081810360008301526135f581613099565b9050919050565b60006020820190508181036000830152613615816130bc565b9050919050565b60006020820190508181036000830152613635816130df565b9050919050565b6000602082019050818103600083015261365581613102565b9050919050565b6000602082019050818103600083015261367581613125565b9050919050565b6000602082019050818103600083015261369581613148565b9050919050565b600060208201905081810360008301526136b681846131a8565b905092915050565b60006136c86136d9565b90506136d48282613924565b919050565b6000604051905090565b600067ffffffffffffffff8211156136fe576136fd613a69565b5b602082029050602081019050919050565b600067ffffffffffffffff82111561372a57613729613a69565b5b61373382613ab1565b9050602081019050919050565b6000819050919050565b600060059050919050565b600081519050919050565b6000602082019050919050565b600081905092915050565b600082825260208201905092915050565b600082825260208201905092915050565b60006137a582613849565b91506137b083613849565b92508260ff038211156137c6576137c56139ad565b5b828201905092915050565b60006137dc8261381f565b9050919050565b60008115159050919050565b6000819050919050565b600081905061380782613dc5565b919050565b600081905061381a82613dd9565b919050565b600073ffffffffffffffffffffffffffffffffffffffff82169050919050565b6000819050919050565b600060ff82169050919050565b60006138618261388c565b9050919050565b6000613873826137f9565b9050919050565b60006138858261380c565b9050919050565b60006138978261389e565b9050919050565b60006138a98261381f565b9050919050565b82818337600083830152505050565b60005b838110156138dd5780820151818401526020810190506138c2565b838111156138ec576000848401525b50505050565b6000600282049050600182168061390a57607f821691505b6020821081141561391e5761391d613a0b565b5b50919050565b61392d82613ab1565b810181811067ffffffffffffffff8211171561394c5761394b613a69565b5b80604052505050565b600061396082613849565b915060ff821415613974576139736139ad565b5b600182019050919050565b600061398a82613991565b9050919050565b600061399c82613ac2565b9050919050565b6000819050919050565b7f4e487b7100000000000000000000000000000000000000000000000000000000600052601160045260246000fd5b7f4e487b7100000000000000000000000000000000000000000000000000000000600052602160045260246000fd5b7f4e487b7100000000000000000000000000000000000000000000000000000000600052602260045260246000fd5b7f4e487b7100000000000000000000000000000000000000000000000000000000600052603260045260246000fd5b7f4e487b7100000000000000000000000000000000000000000000000000000000600052604160045260246000fd5b600080fd5b600080fd5b600080fd5b600080fd5b600080fd5b6000601f19601f8301169050919050565b60008160601b9050919050565b7f4f776e61626c653a206e6577206f776e657220697320746865207a65726f206160008201527f6464726573730000000000000000000000000000000000000000000000000000602082015250565b7f496e76616c696420726561736f6e2e20506c656173652070726f76696465206160008201527f2076616c696420696e7075742e00000000000000000000000000000000000000602082015250565b7f596f75206172656e277420612076616c69642077617265686f75736520776f7260008201527f6b65720000000000000000000000000000000000000000000000000000000000602082015250565b7f596f75206172656e277420612076616c6964206469737061746368657220776f60008201527f726b657200000000000000000000000000000000000000000000000000000000602082015250565b7f546865206f7264657220646f65736e2774206578697374000000000000000000600082015250565b7f4f776e61626c653a2063616c6c6572206973206e6f7420746865206f776e6572600082015250565b7f4e6f2076616c6964206f7264657220666f756e6420696e20636c69656e74207160008201527f7565756500000000000000000000000000000000000000000000000000000000602082015250565b7f596f75206172656e277420612076616c696420636c69656e7400000000000000600082015250565b7f546865206f726465722063616e6e27742062652063616e63656c656400000000600082015250565b7f596f7520646f6e2774206861766520616e2061737369676e6564206f72646572600082015250565b7f546865206f776e657220646f65736e2774206578697374000000000000000000600082015250565b7f546865206f72646572206d75737420626520696e2044454c495645524544207360008201527f746174757320746f206265206d61726b6564206173207265636569766564207760208201527f6974682064697363726570616e63790000000000000000000000000000000000604082015250565b60078110613dd657613dd56139dc565b5b50565b60048110613dea57613de96139dc565b5b50565b613df6816137d1565b8114613e0157600080fd5b50565b613e0d816137e3565b8114613e1857600080fd5b50565b613e24816137ef565b8114613e2f57600080fd5b50565b60048110613e3f57600080fd5b50565b613e4b8161383f565b8114613e5657600080fd5b50565b613e6281613849565b8114613e6d57600080fd5b5056fea2646970667358221220bf7bb49db82f0363db0b65d4c1ed32abb594b1107ff9416301cfaa44e7b4624c64736f6c63430008070033608060405234801561001057600080fd5b5061002d61002261004a60201b60201c565b61005260201b60201c565b600060028190555060006003819055506000600481905550610116565b600033905090565b60008060009054906101000a900473ffffffffffffffffffffffffffffffffffffffff169050816000806101000a81548173ffffffffffffffffffffffffffffffffffffffff021916908373ffffffffffffffffffffffffffffffffffffffff1602179055508173ffffffffffffffffffffffffffffffffffffffff168173ffffffffffffffffffffffffffffffffffffffff167f8be0079c531659141344cd1fd0a4f28419497f9722a3daafe3b4186f6b6457e060405160405180910390a35050565b610ad3806101256000396000f3fe608060405234801561001057600080fd5b50600436106100885760003560e01c8063a47ce1661161005b578063a47ce166146100f1578063b4de3e2314610121578063de8fa4311461013d578063f2fde38b1461015b57610088565b8063681fe70c1461008d578063715018a6146100ab5780638da5cb5b146100b5578063957908d1146100d3575b600080fd5b610095610177565b6040516100a29190610753565b60405180910390f35b6100b361018c565b005b6100bd6101a0565b6040516100ca9190610738565b60405180910390f35b6100db6101c9565b6040516100e8919061076e565b60405180910390f35b61010b60048036038101906101069190610666565b6102bc565b6040516101189190610753565b60405180910390f35b61013b60048036038101906101369190610666565b61035e565b005b6101456103ed565b60405161015291906107e9565b60405180910390f35b61017560048036038101906101709190610639565b6103ff565b005b6000610181610483565b600060045414905090565b610194610483565b61019e6000610501565b565b60008060009054906101000a900473ffffffffffffffffffffffffffffffffffffffff16905090565b60006101d3610483565b600060045411610218576040517f08c379a000000000000000000000000000000000000000000000000000000000815260040161020f90610789565b60405180910390fd5b6000600160006002548152602001908152602001600020549050600160006002548152602001908152602001600020600090556102937fffffffffffffffffffffffffffffffffffffffffffffffffffffffffffffffff61028560016002546105c590919063ffffffff16565b6105db90919063ffffffff16565b6002819055506102af60016004546105f190919063ffffffff16565b6004819055508091505090565b600080600090505b6004548110156103535760006103177fffffffffffffffffffffffffffffffffffffffffffffffffffffffffffffffff610309846002546105c590919063ffffffff16565b6105db90919063ffffffff16565b9050836001600083815260200190815260200160002054141561033f57600192505050610359565b50808061034b906108f1565b9150506102c4565b50600090505b919050565b610366610483565b80600160006003548152602001908152602001600020819055506103c87fffffffffffffffffffffffffffffffffffffffffffffffffffffffffffffffff6103ba60016003546105c590919063ffffffff16565b6105db90919063ffffffff16565b6003819055506103e460016004546105c590919063ffffffff16565b60048190555050565b60006103f7610483565b600454905090565b610407610483565b600073ffffffffffffffffffffffffffffffffffffffff168173ffffffffffffffffffffffffffffffffffffffff161415610477576040517f08c379a000000000000000000000000000000000000000000000000000000000815260040161046e906107a9565b60405180910390fd5b61048081610501565b50565b61048b610607565b73ffffffffffffffffffffffffffffffffffffffff166104a96101a0565b73ffffffffffffffffffffffffffffffffffffffff16146104ff576040517f08c379a00000000000000000000000000000000000000000000000000000000081526004016104f6906107c9565b60405180910390fd5b565b60008060009054906101000a900473ffffffffffffffffffffffffffffffffffffffff169050816000806101000a81548173ffffffffffffffffffffffffffffffffffffffff021916908373ffffffffffffffffffffffffffffffffffffffff1602179055508173ffffffffffffffffffffffffffffffffffffffff168173ffffffffffffffffffffffffffffffffffffffff167f8be0079c531659141344cd1fd0a4f28419497f9722a3daafe3b4186f6b6457e060405160405180910390a35050565b600081836105d39190610815565b905092915050565b600081836105e9919061093a565b905092915050565b600081836105ff919061086b565b905092915050565b600033905090565b60008135905061061e81610a6f565b92915050565b60008135905061063381610a86565b92915050565b60006020828403121561064f5761064e6109c9565b5b600061065d8482850161060f565b91505092915050565b60006020828403121561067c5761067b6109c9565b5b600061068a84828501610624565b91505092915050565b61069c8161089f565b82525050565b6106ab816108b1565b82525050565b6106ba816108bd565b82525050565b60006106cd600e83610804565b91506106d8826109ce565b602082019050919050565b60006106f0602683610804565b91506106fb826109f7565b604082019050919050565b6000610713602083610804565b915061071e82610a46565b602082019050919050565b610732816108e7565b82525050565b600060208201905061074d6000830184610693565b92915050565b600060208201905061076860008301846106a2565b92915050565b600060208201905061078360008301846106b1565b92915050565b600060208201905081810360008301526107a2816106c0565b9050919050565b600060208201905081810360008301526107c2816106e3565b9050919050565b600060208201905081810360008301526107e281610706565b9050919050565b60006020820190506107fe6000830184610729565b92915050565b600082825260208201905092915050565b6000610820826108e7565b915061082b836108e7565b9250827fffffffffffffffffffffffffffffffffffffffffffffffffffffffffffffffff038211156108605761085f61096b565b5b828201905092915050565b6000610876826108e7565b9150610881836108e7565b9250828210156108945761089361096b565b5b828203905092915050565b60006108aa826108c7565b9050919050565b60008115159050919050565b6000819050919050565b600073ffffffffffffffffffffffffffffffffffffffff82169050919050565b6000819050919050565b60006108fc826108e7565b91507fffffffffffffffffffffffffffffffffffffffffffffffffffffffffffffffff82141561092f5761092e61096b565b5b600182019050919050565b6000610945826108e7565b9150610950836108e7565b9250826109605761095f61099a565b5b828206905092915050565b7f4e487b7100000000000000000000000000000000000000000000000000000000600052601160045260246000fd5b7f4e487b7100000000000000000000000000000000000000000000000000000000600052601260045260246000fd5b600080fd5b7f517565756520697320656d707479000000000000000000000000000000000000600082015250565b7f4f776e61626c653a206e6577206f776e657220697320746865207a65726f206160008201527f6464726573730000000000000000000000000000000000000000000000000000602082015250565b7f4f776e61626c653a2063616c6c6572206973206e6f7420746865206f776e6572600082015250565b610a788161089f565b8114610a8357600080fd5b50565b610a8f816108bd565b8114610a9a57600080fd5b5056fea2646970667358221220757224003cd45345837abb3bd4b66fd7f2b498cf860075354f3c22416041455064736f6c63430008070033608060405234801561001057600080fd5b50610762806100206000396000f3fe608060405234801561001057600080fd5b50600436106100415760003560e01c80634dfefc4b146100465780637d404b5f14610076578063bc1cc0c014610092575b600080fd5b610060600480360381019061005b9190610400565b6100c3565b60405161006d91906104d1565b60405180910390f35b610090600480360381019061008b919061042d565b61011b565b005b6100ac60048036038101906100a79190610400565b61019e565b6040516100ba9291906104ec565b60405180910390f35b60008060008373ffffffffffffffffffffffffffffffffffffffff1673ffffffffffffffffffffffffffffffffffffffff16815260200190815260200160002060010160009054906101000a900460ff169050919050565b806000808473ffffffffffffffffffffffffffffffffffffffff1673ffffffffffffffffffffffffffffffffffffffff1681526020019081526020016000206000820151816000019080519060200190610176929190610257565b5060208201518160010160006101000a81548160ff0219169083151502179055509050505050565b60006020528060005260406000206000915090508060000180546101c19061060e565b80601f01602080910402602001604051908101604052809291908181526020018280546101ed9061060e565b801561023a5780601f1061020f5761010080835404028352916020019161023a565b820191906000526020600020905b81548152906001019060200180831161021d57829003601f168201915b5050505050908060010160009054906101000a900460ff16905082565b8280546102639061060e565b90600052602060002090601f01602090048101928261028557600085556102cc565b82601f1061029e57805160ff19168380011785556102cc565b828001600101855582156102cc579182015b828111156102cb5782518255916020019190600101906102b0565b5b5090506102d991906102dd565b5090565b5b808211156102f65760008160009055506001016102de565b5090565b600061030d61030884610541565b61051c565b905082815260208101848484011115610329576103286106de565b5b6103348482856105cc565b509392505050565b60008135905061034b816106fe565b92915050565b60008135905061036081610715565b92915050565b600082601f83011261037b5761037a6106cf565b5b813561038b8482602086016102fa565b91505092915050565b6000604082840312156103aa576103a96106d4565b5b6103b4604061051c565b9050600082013567ffffffffffffffff8111156103d4576103d36106d9565b5b6103e084828501610366565b60008301525060206103f484828501610351565b60208301525092915050565b600060208284031215610416576104156106e8565b5b60006104248482850161033c565b91505092915050565b60008060408385031215610444576104436106e8565b5b60006104528582860161033c565b925050602083013567ffffffffffffffff811115610473576104726106e3565b5b61047f85828601610394565b9150509250929050565b610492816105a0565b82525050565b60006104a382610572565b6104ad818561057d565b93506104bd8185602086016105db565b6104c6816106ed565b840191505092915050565b60006020820190506104e66000830184610489565b92915050565b600060408201905081810360008301526105068185610498565b90506105156020830184610489565b9392505050565b6000610526610537565b90506105328282610640565b919050565b6000604051905090565b600067ffffffffffffffff82111561055c5761055b6106a0565b5b610565826106ed565b9050602081019050919050565b600081519050919050565b600082825260208201905092915050565b6000610599826105ac565b9050919050565b60008115159050919050565b600073ffffffffffffffffffffffffffffffffffffffff82169050919050565b82818337600083830152505050565b60005b838110156105f95780820151818401526020810190506105de565b83811115610608576000848401525b50505050565b6000600282049050600182168061062657607f821691505b6020821081141561063a57610639610671565b5b50919050565b610649826106ed565b810181811067ffffffffffffffff82111715610668576106676106a0565b5b80604052505050565b7f4e487b7100000000000000000000000000000000000000000000000000000000600052602260045260246000fd5b7f4e487b7100000000000000000000000000000000000000000000000000000000600052604160045260246000fd5b600080fd5b600080fd5b600080fd5b600080fd5b600080fd5b600080fd5b6000601f19601f8301169050919050565b6107078161058e565b811461071257600080fd5b50565b61071e816105a0565b811461072957600080fd5b5056fea2646970667358221220e168e3f287c63bea186e304ffeaece28f386dfaa2dc31e42ccbbf0c2f852cea564736f6c63430008070033608060405234801561001057600080fd5b50610762806100206000396000f3fe608060405234801561001057600080fd5b50600436106100415760003560e01c80634dfefc4b14610046578063b434f2ad14610076578063d07f1194146100a7575b600080fd5b610060600480360381019061005b9190610400565b6100c3565b60405161006d91906104d1565b60405180910390f35b610090600480360381019061008b9190610400565b61011b565b60405161009e9291906104ec565b60405180910390f35b6100c160048036038101906100bc919061042d565b6101d4565b005b60008060008373ffffffffffffffffffffffffffffffffffffffff1673ffffffffffffffffffffffffffffffffffffffff16815260200190815260200160002060010160009054906101000a900460ff169050919050565b600060205280600052604060002060009150905080600001805461013e9061060e565b80601f016020809104026020016040519081016040528092919081815260200182805461016a9061060e565b80156101b75780601f1061018c576101008083540402835291602001916101b7565b820191906000526020600020905b81548152906001019060200180831161019a57829003601f168201915b5050505050908060010160009054906101000a900460ff16905082565b806000808473ffffffffffffffffffffffffffffffffffffffff1673ffffffffffffffffffffffffffffffffffffffff168152602001908152602001600020600082015181600001908051906020019061022f929190610257565b5060208201518160010160006101000a81548160ff0219169083151502179055509050505050565b8280546102639061060e565b90600052602060002090601f01602090048101928261028557600085556102cc565b82601f1061029e57805160ff19168380011785556102cc565b828001600101855582156102cc579182015b828111156102cb5782518255916020019190600101906102b0565b5b5090506102d991906102dd565b5090565b5b808211156102f65760008160009055506001016102de565b5090565b600061030d61030884610541565b61051c565b905082815260208101848484011115610329576103286106de565b5b6103348482856105cc565b509392505050565b60008135905061034b816106fe565b92915050565b60008135905061036081610715565b92915050565b600082601f83011261037b5761037a6106cf565b5b813561038b8482602086016102fa565b91505092915050565b6000604082840312156103aa576103a96106d4565b5b6103b4604061051c565b9050600082013567ffffffffffffffff8111156103d4576103d36106d9565b5b6103e084828501610366565b60008301525060206103f484828501610351565b60208301525092915050565b600060208284031215610416576104156106e8565b5b60006104248482850161033c565b91505092915050565b60008060408385031215610444576104436106e8565b5b60006104528582860161033c565b925050602083013567ffffffffffffffff811115610473576104726106e3565b5b61047f85828601610394565b9150509250929050565b610492816105a0565b82525050565b60006104a382610572565b6104ad818561057d565b93506104bd8185602086016105db565b6104c6816106ed565b840191505092915050565b60006020820190506104e66000830184610489565b92915050565b600060408201905081810360008301526105068185610498565b90506105156020830184610489565b9392505050565b6000610526610537565b90506105328282610640565b919050565b6000604051905090565b600067ffffffffffffffff82111561055c5761055b6106a0565b5b610565826106ed565b9050602081019050919050565b600081519050919050565b600082825260208201905092915050565b6000610599826105ac565b9050919050565b60008115159050919050565b600073ffffffffffffffffffffffffffffffffffffffff82169050919050565b82818337600083830152505050565b60005b838110156105f95780820151818401526020810190506105de565b83811115610608576000848401525b50505050565b6000600282049050600182168061062657607f821691505b6020821081141561063a57610639610671565b5b50919050565b610649826106ed565b810181811067ffffffffffffffff82111715610668576106676106a0565b5b80604052505050565b7f4e487b7100000000000000000000000000000000000000000000000000000000600052602260045260246000fd5b7f4e487b7100000000000000000000000000000000000000000000000000000000600052604160045260246000fd5b600080fd5b600080fd5b600080fd5b600080fd5b600080fd5b600080fd5b6000601f19601f8301169050919050565b6107078161058e565b811461071257600080fd5b50565b61071e816105a0565b811461072957600080fd5b5056fea2646970667358221220e07f421ce0acfa67b4f5ffc33480fc066020f00a167c5faab93e50684cb90f1764736f6c63430008070033608060405234801561001057600080fd5b50610762806100206000396000f3fe608060405234801561001057600080fd5b50600436106100415760003560e01c80634dfefc4b1461004657806361eed2a9146100765780636d002ada146100a7575b600080fd5b610060600480360381019061005b9190610400565b6100c3565b60405161006d91906104d1565b60405180910390f35b610090600480360381019061008b9190610400565b61011b565b60405161009e9291906104ec565b60405180910390f35b6100c160048036038101906100bc919061042d565b6101d4565b005b60008060008373ffffffffffffffffffffffffffffffffffffffff1673ffffffffffffffffffffffffffffffffffffffff16815260200190815260200160002060010160009054906101000a900460ff169050919050565b600060205280600052604060002060009150905080600001805461013e9061060e565b80601f016020809104026020016040519081016040528092919081815260200182805461016a9061060e565b80156101b75780601f1061018c576101008083540402835291602001916101b7565b820191906000526020600020905b81548152906001019060200180831161019a57829003601f168201915b5050505050908060010160009054906101000a900460ff16905082565b806000808473ffffffffffffffffffffffffffffffffffffffff1673ffffffffffffffffffffffffffffffffffffffff168152602001908152602001600020600082015181600001908051906020019061022f929190610257565b5060208201518160010160006101000a81548160ff0219169083151502179055509050505050565b8280546102639061060e565b90600052602060002090601f01602090048101928261028557600085556102cc565b82601f1061029e57805160ff19168380011785556102cc565b828001600101855582156102cc579182015b828111156102cb5782518255916020019190600101906102b0565b5b5090506102d991906102dd565b5090565b5b808211156102f65760008160009055506001016102de565b5090565b600061030d61030884610541565b61051c565b905082815260208101848484011115610329576103286106de565b5b6103348482856105cc565b509392505050565b60008135905061034b816106fe565b92915050565b60008135905061036081610715565b92915050565b600082601f83011261037b5761037a6106cf565b5b813561038b8482602086016102fa565b91505092915050565b6000604082840312156103aa576103a96106d4565b5b6103b4604061051c565b9050600082013567ffffffffffffffff8111156103d4576103d36106d9565b5b6103e084828501610366565b60008301525060206103f484828501610351565b60208301525092915050565b600060208284031215610416576104156106e8565b5b60006104248482850161033c565b91505092915050565b60008060408385031215610444576104436106e8565b5b60006104528582860161033c565b925050602083013567ffffffffffffffff811115610473576104726106e3565b5b61047f85828601610394565b9150509250929050565b610492816105a0565b82525050565b60006104a382610572565b6104ad818561057d565b93506104bd8185602086016105db565b6104c6816106ed565b840191505092915050565b60006020820190506104e66000830184610489565b92915050565b600060408201905081810360008301526105068185610498565b90506105156020830184610489565b9392505050565b6000610526610537565b90506105328282610640565b919050565b6000604051905090565b600067ffffffffffffffff82111561055c5761055b6106a0565b5b610565826106ed565b9050602081019050919050565b600081519050919050565b600082825260208201905092915050565b6000610599826105ac565b9050919050565b60008115159050919050565b600073ffffffffffffffffffffffffffffffffffffffff82169050919050565b82818337600083830152505050565b60005b838110156105f95780820151818401526020810190506105de565b83811115610608576000848401525b50505050565b6000600282049050600182168061062657607f821691505b6020821081141561063a57610639610671565b5b50919050565b610649826106ed565b810181811067ffffffffffffffff82111715610668576106676106a0565b5b80604052505050565b7f4e487b7100000000000000000000000000000000000000000000000000000000600052602260045260246000fd5b7f4e487b7100000000000000000000000000000000000000000000000000000000600052604160045260246000fd5b600080fd5b600080fd5b600080fd5b600080fd5b600080fd5b600080fd5b6000601f19601f8301169050919050565b6107078161058e565b811461071257600080fd5b50565b61071e816105a0565b811461072957600080fd5b5056fea26469706673582212209e7a4f04703db8969e96cd0137acf36ca333b8aafc2c51facbd849596840d48564736f6c63430008070033",
  "devdoc": {
    "kind": "dev",
    "methods": {
      "createClient(address,string)": {
        "details": "Function to create a new client",
        "params": {
          "_clientAddress": "is the address of the client",
          "_name": "of the client"
        }
      },
      "createDispatcherWorker(address,string)": {
        "details": "Function to create a new dispatcher worker",
        "params": {
          "_name": "of the worker",
          "_worker": "is the address of the worker"
        }
      },
      "createWarehouseWorker(address,string)": {
        "details": "Function to create a new warehouse worker",
        "params": {
          "_name": "of the worker",
          "_worker": "is the address of the worker"
        }
      },
      "owner()": {
        "details": "Returns the address of the current owner."
      },
      "renounceOwnership()": {
        "details": "Leaves the contract without owner. It will not be possible to call `onlyOwner` functions. Can only be called by the current owner. NOTE: Renouncing ownership will leave the contract without an owner, thereby disabling any functionality that is only available to the owner."
      },
      "transferOwnership(address)": {
        "details": "Transfers ownership of the contract to a new account (`newOwner`). Can only be called by the current owner."
      }
    },
    "version": 1
  },
  "userdoc": {
    "kind": "user",
    "methods": {},
    "version": 1
  },
  "storageLayout": {
    "storage": [
      {
        "astId": 7,
        "contract": "contracts/App.sol:App",
        "label": "_owner",
        "offset": 0,
        "slot": "0",
        "type": "t_address"
      },
      {
        "astId": 459,
        "contract": "contracts/App.sol:App",
        "label": "pendingOrdersQueue",
        "offset": 0,
        "slot": "1",
        "type": "t_contract(Queue)1658"
      },
      {
        "astId": 462,
        "contract": "contracts/App.sol:App",
        "label": "dispatchedOrdersQueue",
        "offset": 0,
        "slot": "2",
        "type": "t_contract(Queue)1658"
      },
      {
        "astId": 465,
        "contract": "contracts/App.sol:App",
        "label": "warehouse",
        "offset": 0,
        "slot": "3",
        "type": "t_contract(Warehouse)1703"
      },
      {
        "astId": 468,
        "contract": "contracts/App.sol:App",
        "label": "dispatcher",
        "offset": 0,
        "slot": "4",
        "type": "t_contract(Dispatcher)1468"
      },
      {
        "astId": 471,
        "contract": "contracts/App.sol:App",
        "label": "client",
        "offset": 0,
        "slot": "5",
        "type": "t_contract(Client)1423"
      },
      {
        "astId": 474,
        "contract": "contracts/App.sol:App",
        "label": "skus",
        "offset": 0,
        "slot": "6",
        "type": "t_array(t_string_storage)dyn_storage"
      },
      {
        "astId": 495,
        "contract": "contracts/App.sol:App",
        "label": "clientToOrders",
        "offset": 0,
        "slot": "7",
        "type": "t_mapping(t_address,t_mapping(t_bytes32,t_struct(Order)548_storage))"
      },
      {
        "astId": 499,
        "contract": "contracts/App.sol:App",
        "label": "orderIdToClientAddress",
        "offset": 0,
        "slot": "8",
        "type": "t_mapping(t_bytes32,t_address)"
      },
      {
        "astId": 505,
        "contract": "contracts/App.sol:App",
        "label": "orderToProducts",
        "offset": 0,
        "slot": "9",
        "type": "t_mapping(t_bytes32,t_array(t_struct(Product)531_storage)dyn_storage)"
      },
      {
        "astId": 509,
        "contract": "contracts/App.sol:App",
        "label": "warehouserToOrderId",
        "offset": 0,
        "slot": "10",
        "type": "t_mapping(t_address,t_bytes32)"
      },
      {
        "astId": 513,
        "contract": "contracts/App.sol:App",
        "label": "dispatcherToOrderId",
        "offset": 0,
        "slot": "11",
        "type": "t_mapping(t_address,t_bytes32)"
      }
    ],
    "types": {
      "t_address": {
        "encoding": "inplace",
        "label": "address",
        "numberOfBytes": "20"
      },
      "t_array(t_string_storage)dyn_storage": {
        "base": "t_string_storage",
        "encoding": "dynamic_array",
        "label": "string[]",
        "numberOfBytes": "32"
      },
      "t_array(t_struct(Product)531_storage)dyn_storage": {
        "base": "t_struct(Product)531_storage",
        "encoding": "dynamic_array",
        "label": "struct App.Product[]",
        "numberOfBytes": "32"
      },
      "t_bool": {
        "encoding": "inplace",
        "label": "bool",
        "numberOfBytes": "1"
      },
      "t_bytes32": {
        "encoding": "inplace",
        "label": "bytes32",
        "numberOfBytes": "32"
      },
      "t_contract(Client)1423": {
        "encoding": "inplace",
        "label": "contract Client",
        "numberOfBytes": "20"
      },
      "t_contract(Dispatcher)1468": {
        "encoding": "inplace",
        "label": "contract Dispatcher",
        "numberOfBytes": "20"
      },
      "t_contract(Queue)1658": {
        "encoding": "inplace",
        "label": "contract Queue",
        "numberOfBytes": "20"
      },
      "t_contract(Warehouse)1703": {
        "encoding": "inplace",
        "label": "contract Warehouse",
        "numberOfBytes": "20"
      },
      "t_enum(OrderStatus)521": {
        "encoding": "inplace",
        "label": "enum App.OrderStatus",
        "numberOfBytes": "1"
      },
      "t_enum(OrderVerification)526": {
        "encoding": "inplace",
        "label": "enum App.OrderVerification",
        "numberOfBytes": "1"
      },
      "t_mapping(t_address,t_bytes32)": {
        "encoding": "mapping",
        "key": "t_address",
        "label": "mapping(address => bytes32)",
        "numberOfBytes": "32",
        "value": "t_bytes32"
      },
      "t_mapping(t_address,t_mapping(t_bytes32,t_struct(Order)548_storage))": {
        "encoding": "mapping",
        "key": "t_address",
        "label": "mapping(address => mapping(bytes32 => struct App.Order))",
        "numberOfBytes": "32",
        "value": "t_mapping(t_bytes32,t_struct(Order)548_storage)"
      },
      "t_mapping(t_bytes32,t_address)": {
        "encoding": "mapping",
        "key": "t_bytes32",
        "label": "mapping(bytes32 => address)",
        "numberOfBytes": "32",
        "value": "t_address"
      },
      "t_mapping(t_bytes32,t_array(t_struct(Product)531_storage)dyn_storage)": {
        "encoding": "mapping",
        "key": "t_bytes32",
        "label": "mapping(bytes32 => struct App.Product[])",
        "numberOfBytes": "32",
        "value": "t_array(t_struct(Product)531_storage)dyn_storage"
      },
      "t_mapping(t_bytes32,t_struct(Order)548_storage)": {
        "encoding": "mapping",
        "key": "t_bytes32",
        "label": "mapping(bytes32 => struct App.Order)",
        "numberOfBytes": "32",
        "value": "t_struct(Order)548_storage"
      },
      "t_string_storage": {
        "encoding": "bytes",
        "label": "string",
        "numberOfBytes": "32"
      },
      "t_struct(Order)548_storage": {
        "encoding": "inplace",
        "label": "struct App.Order",
        "members": [
          {
            "astId": 533,
            "contract": "contracts/App.sol:App",
            "label": "orderId",
            "offset": 0,
            "slot": "0",
            "type": "t_bytes32"
          },
          {
            "astId": 535,
            "contract": "contracts/App.sol:App",
            "label": "itemsQuantity",
            "offset": 0,
            "slot": "1",
            "type": "t_uint8"
          },
          {
            "astId": 538,
            "contract": "contracts/App.sol:App",
            "label": "orderStatus",
            "offset": 1,
            "slot": "1",
            "type": "t_enum(OrderStatus)521"
          },
          {
            "astId": 541,
            "contract": "contracts/App.sol:App",
            "label": "orderVerification",
            "offset": 2,
            "slot": "1",
            "type": "t_enum(OrderVerification)526"
          },
          {
            "astId": 543,
            "contract": "contracts/App.sol:App",
            "label": "observations",
            "offset": 0,
            "slot": "2",
            "type": "t_string_storage"
          },
          {
            "astId": 545,
            "contract": "contracts/App.sol:App",
            "label": "price",
            "offset": 0,
            "slot": "3",
            "type": "t_uint256"
          },
          {
            "astId": 547,
            "contract": "contracts/App.sol:App",
            "label": "exist",
            "offset": 0,
            "slot": "4",
            "type": "t_bool"
          }
        ],
        "numberOfBytes": "160"
      },
      "t_struct(Product)531_storage": {
        "encoding": "inplace",
        "label": "struct App.Product",
        "members": [
          {
            "astId": 528,
            "contract": "contracts/App.sol:App",
            "label": "sku",
            "offset": 0,
            "slot": "0",
            "type": "t_string_storage"
          },
          {
            "astId": 530,
            "contract": "contracts/App.sol:App",
            "label": "quantity",
            "offset": 0,
            "slot": "1",
            "type": "t_uint8"
          }
        ],
        "numberOfBytes": "64"
      },
      "t_uint256": {
        "encoding": "inplace",
        "label": "uint256",
        "numberOfBytes": "32"
      },
      "t_uint8": {
        "encoding": "inplace",
        "label": "uint8",
        "numberOfBytes": "1"
      }
    }
  }
}