{
  "address": "0xd98d28567B3fCdF87Ea7eFDD75fBe48Bdc5001B6",
  "abi": [
    {
      "inputs": [
        {
          "internalType": "string[]",
          "name": "_skus",
          "type": "string[]"
        }
      ],
      "stateMutability": "nonpayable",
      "type": "constructor"
    },
    {
      "anonymous": false,
      "inputs": [
        {
          "indexed": false,
          "internalType": "string",
          "name": "message",
          "type": "string"
        }
      ],
      "name": "LogMessage",
      "type": "event"
    },
    {
      "anonymous": false,
      "inputs": [
        {
          "indexed": false,
          "internalType": "bytes32",
          "name": "orderId",
          "type": "bytes32"
        }
      ],
      "name": "OrderCanceled",
      "type": "event"
    },
    {
      "anonymous": false,
      "inputs": [
        {
          "indexed": false,
          "internalType": "address",
          "name": "client",
          "type": "address"
        },
        {
          "indexed": false,
          "internalType": "bytes32",
          "name": "orderId",
          "type": "bytes32"
        }
      ],
      "name": "OrderCreated",
      "type": "event"
    },
    {
      "anonymous": false,
      "inputs": [
        {
          "indexed": false,
          "internalType": "bytes32",
          "name": "orderId",
          "type": "bytes32"
        }
      ],
      "name": "OrderDeliver",
      "type": "event"
    },
    {
      "anonymous": false,
      "inputs": [
        {
          "indexed": false,
          "internalType": "bytes32",
          "name": "orderId",
          "type": "bytes32"
        }
      ],
      "name": "OrderInPreration",
      "type": "event"
    },
    {
      "anonymous": false,
      "inputs": [
        {
          "indexed": false,
          "internalType": "bytes32",
          "name": "orderId",
          "type": "bytes32"
        }
      ],
      "name": "OrderPrepared",
      "type": "event"
    },
    {
      "anonymous": false,
      "inputs": [
        {
          "indexed": true,
          "internalType": "address",
          "name": "previousOwner",
          "type": "address"
        },
        {
          "indexed": true,
          "internalType": "address",
          "name": "newOwner",
          "type": "address"
        }
      ],
      "name": "OwnershipTransferred",
      "type": "event"
    },
    {
      "inputs": [],
      "name": "addOrderToPreparationStage",
      "outputs": [],
      "stateMutability": "nonpayable",
      "type": "function"
    },
    {
      "inputs": [
        {
          "internalType": "bytes32",
          "name": "orderId",
          "type": "bytes32"
        }
      ],
      "name": "cancelOrder",
      "outputs": [],
      "stateMutability": "nonpayable",
      "type": "function"
    },
    {
      "inputs": [
        {
          "internalType": "address",
          "name": "",
          "type": "address"
        },
        {
          "internalType": "bytes32",
          "name": "",
          "type": "bytes32"
        }
      ],
      "name": "clientToOrders",
      "outputs": [
        {
          "internalType": "bytes32",
          "name": "orderId",
          "type": "bytes32"
        },
        {
          "internalType": "uint8",
          "name": "itemsQuantity",
          "type": "uint8"
        },
        {
          "internalType": "enum App.OrderStatus",
          "name": "orderStatus",
          "type": "uint8"
        },
        {
          "internalType": "enum App.OrderVerification",
          "name": "orderVerification",
          "type": "uint8"
        },
        {
          "internalType": "string",
          "name": "observations",
          "type": "string"
        },
        {
          "internalType": "uint256",
          "name": "price",
          "type": "uint256"
        },
        {
          "internalType": "bool",
          "name": "exist",
          "type": "bool"
        }
      ],
      "stateMutability": "view",
      "type": "function"
    },
    {
      "inputs": [
        {
          "internalType": "address",
          "name": "_clientAddress",
          "type": "address"
        },
        {
          "internalType": "string",
          "name": "_name",
          "type": "string"
        }
      ],
      "name": "createClient",
      "outputs": [],
      "stateMutability": "nonpayable",
      "type": "function"
    },
    {
      "inputs": [
        {
          "internalType": "address",
          "name": "_worker",
          "type": "address"
        },
        {
          "internalType": "string",
          "name": "_name",
          "type": "string"
        }
      ],
      "name": "createDispatcherWorker",
      "outputs": [],
      "stateMutability": "nonpayable",
      "type": "function"
    },
    {
      "inputs": [
        {
          "internalType": "uint8[]",
          "name": "quantities",
          "type": "uint8[]"
        }
      ],
      "name": "createOrder",
      "outputs": [],
      "stateMutability": "payable",
      "type": "function"
    },
    {
      "inputs": [
        {
          "internalType": "address",
          "name": "_worker",
          "type": "address"
        },
        {
          "internalType": "string",
          "name": "_name",
          "type": "string"
        }
      ],
      "name": "createWarehouseWorker",
      "outputs": [],
      "stateMutability": "nonpayable",
      "type": "function"
    },
    {
      "inputs": [],
      "name": "deliverOrder",
      "outputs": [],
      "stateMutability": "nonpayable",
      "type": "function"
    },
    {
      "inputs": [],
      "name": "dispatchOrder",
      "outputs": [],
      "stateMutability": "nonpayable",
      "type": "function"
    },
    {
      "inputs": [],
      "name": "dispatchedOrdersQueue",
      "outputs": [
        {
          "internalType": "contract Queue",
          "name": "",
          "type": "address"
        }
      ],
      "stateMutability": "view",
      "type": "function"
    },
    {
      "inputs": [
        {
          "internalType": "address",
          "name": "",
          "type": "address"
        }
      ],
      "name": "dispatcherToOrderId",
      "outputs": [
        {
          "internalType": "bytes32",
          "name": "",
          "type": "bytes32"
        }
      ],
      "stateMutability": "view",
      "type": "function"
    },
    {
      "inputs": [
        {
          "internalType": "bytes32",
          "name": "orderId",
          "type": "bytes32"
        }
      ],
      "name": "getOrder",
      "outputs": [
        {
          "components": [
            {
              "internalType": "bytes32",
              "name": "orderId",
              "type": "bytes32"
            },
            {
              "internalType": "uint8",
              "name": "itemsQuantity",
              "type": "uint8"
            },
            {
              "internalType": "enum App.OrderStatus",
              "name": "orderStatus",
              "type": "uint8"
            },
            {
              "internalType": "enum App.OrderVerification",
              "name": "orderVerification",
              "type": "uint8"
            },
            {
              "internalType": "string",
              "name": "observations",
              "type": "string"
            },
            {
              "internalType": "uint256",
              "name": "price",
              "type": "uint256"
            },
            {
              "internalType": "bool",
              "name": "exist",
              "type": "bool"
            }
          ],
          "internalType": "struct App.Order",
          "name": "",
          "type": "tuple"
        }
      ],
      "stateMutability": "view",
      "type": "function"
    },
    {
      "inputs": [
        {
          "internalType": "bytes32",
          "name": "orderId",
          "type": "bytes32"
        }
      ],
      "name": "getProductsByClient",
      "outputs": [
        {
          "components": [
            {
              "internalType": "string",
              "name": "sku",
              "type": "string"
            },
            {
              "internalType": "uint8",
              "name": "quantity",
              "type": "uint8"
            }
          ],
          "internalType": "struct App.Product[5]",
          "name": "products",
          "type": "tuple[5]"
        }
      ],
      "stateMutability": "view",
      "type": "function"
    },
    {
      "inputs": [
        {
          "internalType": "bytes32",
          "name": "orderId",
          "type": "bytes32"
        },
        {
          "internalType": "enum App.OrderVerification",
          "name": "reason",
          "type": "uint8"
        }
      ],
      "name": "markOrderAsReceivedWithDiscrepancy",
      "outputs": [],
      "stateMutability": "nonpayable",
      "type": "function"
    },
    {
      "inputs": [],
      "name": "moveOrderToDeliverStage",
      "outputs": [],
      "stateMutability": "nonpayable",
      "type": "function"
    },
    {
      "inputs": [],
      "name": "owner",
      "outputs": [
        {
          "internalType": "address",
          "name": "",
          "type": "address"
        }
      ],
      "stateMutability": "view",
      "type": "function"
    },
    {
      "inputs": [],
      "name": "pendingOrdersQueue",
      "outputs": [
        {
          "internalType": "contract Queue",
          "name": "",
          "type": "address"
        }
      ],
      "stateMutability": "view",
      "type": "function"
    },
    {
      "inputs": [],
      "name": "renounceOwnership",
      "outputs": [],
      "stateMutability": "nonpayable",
      "type": "function"
    },
    {
      "inputs": [
        {
          "internalType": "address",
          "name": "newOwner",
          "type": "address"
        }
      ],
      "name": "transferOwnership",
      "outputs": [],
      "stateMutability": "nonpayable",
      "type": "function"
    },
    {
      "inputs": [
        {
          "internalType": "bytes32",
          "name": "orderId",
          "type": "bytes32"
        }
      ],
      "name": "verifyOrder",
      "outputs": [],
      "stateMutability": "nonpayable",
      "type": "function"
    },
    {
      "inputs": [
        {
          "internalType": "address",
          "name": "",
          "type": "address"
        }
      ],
      "name": "warehouserToOrderId",
      "outputs": [
        {
          "internalType": "bytes32",
          "name": "",
          "type": "bytes32"
        }
      ],
      "stateMutability": "view",
      "type": "function"
    }
  ],
  "transactionHash": "0x01f6bfc5ed5a978c1bec4ff38447487e70a20f2e03bf3aa0505962b85efe8ca9",
  "args": [
    [
      "01500",
      "02500",
      "03150",
      "04100",
      "05100"
    ]
  ],
  "numDeployments": 1,
  "solcInputHash": "056e9935fca8d54a96a979d848fa8ad8",
  "bytecode": "0x60806040523480156200001157600080fd5b506040516200693338038062006933833981810160405281019062000037919062000669565b620000576200004b6200029360201b60201c565b6200029b60201b60201c565b60405162000065906200035f565b604051809103906000f08015801562000082573d6000803e3d6000fd5b50600160006101000a81548173ffffffffffffffffffffffffffffffffffffffff021916908373ffffffffffffffffffffffffffffffffffffffff160217905550604051620000d1906200035f565b604051809103906000f080158015620000ee573d6000803e3d6000fd5b50600260006101000a81548173ffffffffffffffffffffffffffffffffffffffff021916908373ffffffffffffffffffffffffffffffffffffffff1602179055506040516200013d906200036d565b604051809103906000f0801580156200015a573d6000803e3d6000fd5b50600360006101000a81548173ffffffffffffffffffffffffffffffffffffffff021916908373ffffffffffffffffffffffffffffffffffffffff160217905550604051620001a9906200037b565b604051809103906000f080158015620001c6573d6000803e3d6000fd5b50600460006101000a81548173ffffffffffffffffffffffffffffffffffffffff021916908373ffffffffffffffffffffffffffffffffffffffff160217905550604051620002159062000389565b604051809103906000f08015801562000232573d6000803e3d6000fd5b50600560006101000a81548173ffffffffffffffffffffffffffffffffffffffff021916908373ffffffffffffffffffffffffffffffffffffffff16021790555080600690805190602001906200028b92919062000397565b505062000872565b600033905090565b60008060009054906101000a900473ffffffffffffffffffffffffffffffffffffffff169050816000806101000a81548173ffffffffffffffffffffffffffffffffffffffff021916908373ffffffffffffffffffffffffffffffffffffffff1602179055508173ffffffffffffffffffffffffffffffffffffffff168173ffffffffffffffffffffffffffffffffffffffff167f8be0079c531659141344cd1fd0a4f28419497f9722a3daafe3b4186f6b6457e060405160405180910390a35050565b610bba80620046f383390190565b61078280620052ad83390190565b6107828062005a2f83390190565b61078280620061b183390190565b828054828255906000526020600020908101928215620003eb579160200282015b82811115620003ea578251829080519060200190620003d9929190620003fe565b5091602001919060010190620003b8565b5b509050620003fa91906200048f565b5090565b8280546200040c906200077e565b90600052602060002090601f0160209004810192826200043057600085556200047c565b82601f106200044b57805160ff19168380011785556200047c565b828001600101855582156200047c579182015b828111156200047b5782518255916020019190600101906200045e565b5b5090506200048b9190620004b7565b5090565b5b80821115620004b35760008181620004a99190620004d6565b5060010162000490565b5090565b5b80821115620004d2576000816000905550600101620004b8565b5090565b508054620004e4906200077e565b6000825580601f10620004f8575062000519565b601f016020900490600052602060002090810190620005189190620004b7565b5b50565b6000620005336200052d84620006e3565b620006ba565b905080838252602082019050828560208602820111156200055957620005586200084d565b5b60005b85811015620005ae57815167ffffffffffffffff81111562000583576200058262000848565b5b80860162000592898262000636565b855260208501945060208401935050506001810190506200055c565b5050509392505050565b6000620005cf620005c98462000712565b620006ba565b905082815260208101848484011115620005ee57620005ed62000852565b5b620005fb84828562000748565b509392505050565b600082601f8301126200061b576200061a62000848565b5b81516200062d8482602086016200051c565b91505092915050565b600082601f8301126200064e576200064d62000848565b5b815162000660848260208601620005b8565b91505092915050565b6000602082840312156200068257620006816200085c565b5b600082015167ffffffffffffffff811115620006a357620006a262000857565b5b620006b18482850162000603565b91505092915050565b6000620006c6620006d9565b9050620006d48282620007b4565b919050565b6000604051905090565b600067ffffffffffffffff82111562000701576200070062000819565b5b602082029050602081019050919050565b600067ffffffffffffffff82111562000730576200072f62000819565b5b6200073b8262000861565b9050602081019050919050565b60005b83811015620007685780820151818401526020810190506200074b565b8381111562000778576000848401525b50505050565b600060028204905060018216806200079757607f821691505b60208210811415620007ae57620007ad620007ea565b5b50919050565b620007bf8262000861565b810181811067ffffffffffffffff82111715620007e157620007e062000819565b5b80604052505050565b7f4e487b7100000000000000000000000000000000000000000000000000000000600052602260045260246000fd5b7f4e487b7100000000000000000000000000000000000000000000000000000000600052604160045260246000fd5b600080fd5b600080fd5b600080fd5b600080fd5b600080fd5b6000601f19601f8301169050919050565b613e7180620008826000396000f3fe60806040526004361061012a5760003560e01c80637489ec23116100ab578063bc61c9201161006f578063bc61c920146103c1578063ca0987e9146103d8578063de0f6a62146103ef578063e08d085d14610418578063e1a00d991461042f578063f2fde38b1461046c5761012a565b80637489ec23146102c45780637b795ec6146102ed5780638658659a1461032a578063881489c41461036d5780638da5cb5b146103965761012a565b806353e7006d116100f257806353e7006d146101dd5780635778472a1461020857806366e2374d14610245578063715018a614610282578063735d138e146102995761012a565b80630af316dc1461012f57806310c6d15414610146578063169fb3281461016f5780632093e7d114610198578063385d4192146101c1575b600080fd5b34801561013b57600080fd5b50610144610495565b005b34801561015257600080fd5b5061016d60048036038101906101689190612c51565b610700565b005b34801561017b57600080fd5b5061019660048036038101906101919190612d23565b6107b0565b005b3480156101a457600080fd5b506101bf60048036038101906101ba9190612d7d565b610930565b005b6101db60048036038101906101d69190612cad565b610c57565b005b3480156101e957600080fd5b506101f261119a565b6040516101ff91906134cc565b60405180910390f35b34801561021457600080fd5b5061022f600480360381019061022a9190612d23565b6111c0565b60405161023c9190613667565b60405180910390f35b34801561025157600080fd5b5061026c60048036038101906102679190612d23565b611337565b6040516102799190613419565b60405180910390f35b34801561028e57600080fd5b5061029761143a565b005b3480156102a557600080fd5b506102ae61144e565b6040516102bb91906134cc565b60405180910390f35b3480156102d057600080fd5b506102eb60048036038101906102e69190612d23565b611474565b005b3480156102f957600080fd5b50610314600480360381019061030f9190612be4565b611744565b604051610321919061343b565b60405180910390f35b34801561033657600080fd5b50610351600480360381019061034c9190612c11565b61175c565b6040516103649796959493929190613456565b60405180910390f35b34801561037957600080fd5b50610394600480360381019061038f9190612c51565b611867565b005b3480156103a257600080fd5b506103ab61191f565b6040516103b89190613345565b60405180910390f35b3480156103cd57600080fd5b506103d6611948565b005b3480156103e457600080fd5b506103ed611b5a565b005b3480156103fb57600080fd5b5061041660048036038101906104119190612c51565b611efd565b005b34801561042457600080fd5b5061042d611fb5565b005b34801561043b57600080fd5b5061045660048036038101906104519190612be4565b612276565b604051610463919061343b565b60405180910390f35b34801561047857600080fd5b50610493600480360381019061048e9190612be4565b61228e565b005b600460009054906101000a900473ffffffffffffffffffffffffffffffffffffffff1673ffffffffffffffffffffffffffffffffffffffff16634dfefc4b336040518263ffffffff1660e01b81526004016104f09190613345565b60206040518083038186803b15801561050857600080fd5b505afa15801561051c573d6000803e3d6000fd5b505050506040513d601f19601f820116820180604052508101906105409190612cf6565b61057f576040517f08c379a000000000000000000000000000000000000000000000000000000000815260040161057690613547565b60405180910390fd5b6000801b600b60003373ffffffffffffffffffffffffffffffffffffffff1673ffffffffffffffffffffffffffffffffffffffff168152602001908152602001600020541415610604576040517f08c379a00000000000000000000000000000000000000000000000000000000081526004016105fb90613607565b60405180910390fd5b6000600b60003373ffffffffffffffffffffffffffffffffffffffff1673ffffffffffffffffffffffffffffffffffffffff168152602001908152602001600020549050600b60003373ffffffffffffffffffffffffffffffffffffffff1673ffffffffffffffffffffffffffffffffffffffff16815260200190815260200160002060009055600061069682612312565b905060058160010160016101000a81548160ff021916908360068111156106c0576106bf6139a7565b5b02179055507f2c48913148e50a68a295001db6894d344055f03426662e82595dfae4edc6d618826040516106f4919061343b565b60405180910390a15050565b60006040518060400160405280838152602001600115158152509050600560009054906101000a900473ffffffffffffffffffffffffffffffffffffffff1673ffffffffffffffffffffffffffffffffffffffff16636d002ada84836040518363ffffffff1660e01b8152600401610779929190613389565b600060405180830381600087803b15801561079357600080fd5b505af11580156107a7573d6000803e3d6000fd5b50505050505050565b600560009054906101000a900473ffffffffffffffffffffffffffffffffffffffff1673ffffffffffffffffffffffffffffffffffffffff16634dfefc4b336040518263ffffffff1660e01b815260040161080b9190613345565b60206040518083038186803b15801561082357600080fd5b505afa158015610837573d6000803e3d6000fd5b505050506040513d601f19601f8201168201806040525081019061085b9190612cf6565b61089a576040517f08c379a0000000000000000000000000000000000000000000000000000000008152600401610891906135c7565b60405180910390fd5b60006108a582612312565b905060068160010160016101000a81548160ff021916908360068111156108cf576108ce6139a7565b5b021790555060006108de61191f565b90508073ffffffffffffffffffffffffffffffffffffffff166108fc83600301549081150290604051600060405180830381858888f1935050505015801561092a573d6000803e3d6000fd5b50505050565b600560009054906101000a900473ffffffffffffffffffffffffffffffffffffffff1673ffffffffffffffffffffffffffffffffffffffff16634dfefc4b336040518263ffffffff1660e01b815260040161098b9190613345565b60206040518083038186803b1580156109a357600080fd5b505afa1580156109b7573d6000803e3d6000fd5b505050506040513d601f19601f820116820180604052508101906109db9190612cf6565b610a1a576040517f08c379a0000000000000000000000000000000000000000000000000000000008152600401610a11906135c7565b60405180910390fd5b600760003373ffffffffffffffffffffffffffffffffffffffff1673ffffffffffffffffffffffffffffffffffffffff168152602001908152602001600020600083815260200190815260200160002060040160009054906101000a900460ff16610aba576040517f08c379a0000000000000000000000000000000000000000000000000000000008152600401610ab190613567565b60405180910390fd5b60056006811115610ace57610acd6139a7565b5b600760003373ffffffffffffffffffffffffffffffffffffffff1673ffffffffffffffffffffffffffffffffffffffff168152602001908152602001600020600084815260200190815260200160002060010160019054906101000a900460ff166006811115610b4157610b406139a7565b5b14610b81576040517f08c379a0000000000000000000000000000000000000000000000000000000008152600401610b7890613647565b60405180910390fd5b60006003811115610b9557610b946139a7565b5b816003811115610ba857610ba76139a7565b5b10158015610bda5750600380811115610bc457610bc36139a7565b5b816003811115610bd757610bd66139a7565b5b11155b610c19576040517f08c379a0000000000000000000000000000000000000000000000000000000008152600401610c1090613507565b60405180910390fd5b6000610c2483612312565b9050818160010160026101000a81548160ff02191690836003811115610c4d57610c4c6139a7565b5b0217905550505050565b600560009054906101000a900473ffffffffffffffffffffffffffffffffffffffff1673ffffffffffffffffffffffffffffffffffffffff16634dfefc4b336040518263ffffffff1660e01b8152600401610cb29190613345565b60206040518083038186803b158015610cca57600080fd5b505afa158015610cde573d6000803e3d6000fd5b505050506040513d601f19601f82011682018060405250810190610d029190612cf6565b610d41576040517f08c379a0000000000000000000000000000000000000000000000000000000008152600401610d38906135c7565b60405180910390fd5b6000803342604051602001610d57929190613319565b6040516020818303038152906040528051906020012090506040518060e00160405280828152602001600060ff16815260200160006006811115610d9e57610d9d6139a7565b5b815260200160006003811115610db757610db66139a7565b5b815260200160405180602001604052806000815250815260200134815260200160011515815250600760003373ffffffffffffffffffffffffffffffffffffffff1673ffffffffffffffffffffffffffffffffffffffff16815260200190815260200160002060008381526020019081526020016000206000820151816000015560208201518160010160006101000a81548160ff021916908360ff16021790555060408201518160010160016101000a81548160ff02191690836006811115610e8457610e836139a7565b5b021790555060608201518160010160026101000a81548160ff02191690836003811115610eb457610eb36139a7565b5b02179055506080820151816002019080519060200190610ed59291906128ed565b5060a0820151816003015560c08201518160040160006101000a81548160ff02191690831515021790555090505060005b60058160ff16101561101057600060068260ff1681548110610f2b57610f2a613a05565b5b906000526020600020018054610f40906138bd565b80601f0160208091040260200160405190810160405280929190818152602001828054610f6c906138bd565b8015610fb95780601f10610f8e57610100808354040283529160200191610fb9565b820191906000526020600020905b815481529060010190602001808311610f9c57829003601f168201915b505050505090506000858360ff1681518110610fd857610fd7613a05565b5b60200260200101519050610fed8483836124e6565b8085610ff99190613765565b94505050808061100890613920565b915050610f06565b5081600760003373ffffffffffffffffffffffffffffffffffffffff1673ffffffffffffffffffffffffffffffffffffffff168152602001908152602001600020600083815260200190815260200160002060010160006101000a81548160ff021916908360ff160217905550600160009054906101000a900473ffffffffffffffffffffffffffffffffffffffff1673ffffffffffffffffffffffffffffffffffffffff1663b4de3e23826040518263ffffffff1660e01b81526004016110d8919061343b565b600060405180830381600087803b1580156110f257600080fd5b505af1158015611106573d6000803e3d6000fd5b50505050336008600083815260200190815260200160002060006101000a81548173ffffffffffffffffffffffffffffffffffffffff021916908373ffffffffffffffffffffffffffffffffffffffff1602179055507ff0e83652aa3c9cbaad5103639853e5c74e518771c5d225b2e37b76550ad0e189338260405161118d929190613360565b60405180910390a1505050565b600260009054906101000a900473ffffffffffffffffffffffffffffffffffffffff1681565b6111c8612973565b6111d182612312565b6040518060e0016040529081600082015481526020016001820160009054906101000a900460ff1660ff1660ff1681526020016001820160019054906101000a900460ff166006811115611228576112276139a7565b5b600681111561123a576112396139a7565b5b81526020016001820160029054906101000a900460ff166003811115611263576112626139a7565b5b6003811115611275576112746139a7565b5b8152602001600282018054611289906138bd565b80601f01602080910402602001604051908101604052809291908181526020018280546112b5906138bd565b80156113025780601f106112d757610100808354040283529160200191611302565b820191906000526020600020905b8154815290600101906020018083116112e557829003601f168201915b50505050508152602001600382015481526020016004820160009054906101000a900460ff1615151515815250509050919050565b61133f6129dc565b600560009054906101000a900473ffffffffffffffffffffffffffffffffffffffff1673ffffffffffffffffffffffffffffffffffffffff16634dfefc4b336040518263ffffffff1660e01b815260040161139a9190613345565b60206040518083038186803b1580156113b257600080fd5b505afa1580156113c6573d6000803e3d6000fd5b505050506040513d601f19601f820116820180604052508101906113ea9190612cf6565b611429576040517f08c379a0000000000000000000000000000000000000000000000000000000008152600401611420906135c7565b60405180910390fd5b6114338233612585565b9050919050565b6114426127a3565b61144c6000612821565b565b600160009054906101000a900473ffffffffffffffffffffffffffffffffffffffff1681565b600560009054906101000a900473ffffffffffffffffffffffffffffffffffffffff1673ffffffffffffffffffffffffffffffffffffffff16634dfefc4b336040518263ffffffff1660e01b81526004016114cf9190613345565b60206040518083038186803b1580156114e757600080fd5b505afa1580156114fb573d6000803e3d6000fd5b505050506040513d601f19601f8201168201806040525081019061151f9190612cf6565b61155e576040517f08c379a0000000000000000000000000000000000000000000000000000000008152600401611555906135c7565b60405180910390fd5b600760003373ffffffffffffffffffffffffffffffffffffffff1673ffffffffffffffffffffffffffffffffffffffff168152602001908152602001600020600082815260200190815260200160002060040160009054906101000a900460ff166115fe576040517f08c379a00000000000000000000000000000000000000000000000000000000081526004016115f590613567565b60405180910390fd5b60006006811115611612576116116139a7565b5b600760003373ffffffffffffffffffffffffffffffffffffffff1673ffffffffffffffffffffffffffffffffffffffff168152602001908152602001600020600083815260200190815260200160002060010160019054906101000a900460ff166006811115611685576116846139a7565b5b146116c5576040517f08c379a00000000000000000000000000000000000000000000000000000000081526004016116bc906135e7565b60405180910390fd5b6001600760003373ffffffffffffffffffffffffffffffffffffffff1673ffffffffffffffffffffffffffffffffffffffff168152602001908152602001600020600083815260200190815260200160002060010160016101000a81548160ff0219169083600681111561173c5761173b6139a7565b5b021790555050565b600a6020528060005260406000206000915090505481565b6007602052816000526040600020602052806000526040600020600091509150508060000154908060010160009054906101000a900460ff16908060010160019054906101000a900460ff16908060010160029054906101000a900460ff16908060020180546117cb906138bd565b80601f01602080910402602001604051908101604052809291908181526020018280546117f7906138bd565b80156118445780601f1061181957610100808354040283529160200191611844565b820191906000526020600020905b81548152906001019060200180831161182757829003601f168201915b5050505050908060030154908060040160009054906101000a900460ff16905087565b61186f6127a3565b60006040518060400160405280838152602001600115158152509050600460009054906101000a900473ffffffffffffffffffffffffffffffffffffffff1673ffffffffffffffffffffffffffffffffffffffff1663d07f119484836040518363ffffffff1660e01b81526004016118e89291906133b9565b600060405180830381600087803b15801561190257600080fd5b505af1158015611916573d6000803e3d6000fd5b50505050505050565b60008060009054906101000a900473ffffffffffffffffffffffffffffffffffffffff16905090565b600460009054906101000a900473ffffffffffffffffffffffffffffffffffffffff1673ffffffffffffffffffffffffffffffffffffffff16634dfefc4b336040518263ffffffff1660e01b81526004016119a39190613345565b60206040518083038186803b1580156119bb57600080fd5b505afa1580156119cf573d6000803e3d6000fd5b505050506040513d601f19601f820116820180604052508101906119f39190612cf6565b611a32576040517f08c379a0000000000000000000000000000000000000000000000000000000008152600401611a2990613547565b60405180910390fd5b6000600260009054906101000a900473ffffffffffffffffffffffffffffffffffffffff1673ffffffffffffffffffffffffffffffffffffffff1663957908d16040518163ffffffff1660e01b8152600401602060405180830381600087803b158015611a9e57600080fd5b505af1158015611ab2573d6000803e3d6000fd5b505050506040513d601f19601f82011682018060405250810190611ad69190612d50565b90506000611ae382612312565b905060048160010160016101000a81548160ff02191690836006811115611b0d57611b0c6139a7565b5b021790555081600b60003373ffffffffffffffffffffffffffffffffffffffff1673ffffffffffffffffffffffffffffffffffffffff168152602001908152602001600020819055505050565b600360009054906101000a900473ffffffffffffffffffffffffffffffffffffffff1673ffffffffffffffffffffffffffffffffffffffff16634dfefc4b336040518263ffffffff1660e01b8152600401611bb59190613345565b60206040518083038186803b158015611bcd57600080fd5b505afa158015611be1573d6000803e3d6000fd5b505050506040513d601f19601f82011682018060405250810190611c059190612cf6565b611c44576040517f08c379a0000000000000000000000000000000000000000000000000000000008152600401611c3b90613527565b60405180910390fd5b6000805b6000600160009054906101000a900473ffffffffffffffffffffffffffffffffffffffff1673ffffffffffffffffffffffffffffffffffffffff1663de8fa4316040518163ffffffff1660e01b815260040160206040518083038186803b158015611cb257600080fd5b505afa158015611cc6573d6000803e3d6000fd5b505050506040513d601f19601f82011682018060405250810190611cea9190612dbd565b118015611cf5575081155b15611e3457600160009054906101000a900473ffffffffffffffffffffffffffffffffffffffff1673ffffffffffffffffffffffffffffffffffffffff1663957908d16040518163ffffffff1660e01b8152600401602060405180830381600087803b158015611d6457600080fd5b505af1158015611d78573d6000803e3d6000fd5b505050506040513d601f19601f82011682018060405250810190611d9c9190612d50565b905060016006811115611db257611db16139a7565b5b600760003373ffffffffffffffffffffffffffffffffffffffff1673ffffffffffffffffffffffffffffffffffffffff168152602001908152602001600020600083815260200190815260200160002060010160019054906101000a900460ff166006811115611e2557611e246139a7565b5b14611e2f57600191505b611c48565b8115611ebe576000611e4582612312565b905060028160010160016101000a81548160ff02191690836006811115611e6f57611e6e6139a7565b5b021790555081600a60003373ffffffffffffffffffffffffffffffffffffffff1673ffffffffffffffffffffffffffffffffffffffff1681526020019081526020016000208190555050611ef9565b6040517f08c379a0000000000000000000000000000000000000000000000000000000008152600401611ef0906135a7565b60405180910390fd5b5050565b611f056127a3565b60006040518060400160405280838152602001600115158152509050600360009054906101000a900473ffffffffffffffffffffffffffffffffffffffff1673ffffffffffffffffffffffffffffffffffffffff16637d404b5f84836040518363ffffffff1660e01b8152600401611f7e9291906133e9565b600060405180830381600087803b158015611f9857600080fd5b505af1158015611fac573d6000803e3d6000fd5b50505050505050565b600360009054906101000a900473ffffffffffffffffffffffffffffffffffffffff1673ffffffffffffffffffffffffffffffffffffffff16634dfefc4b336040518263ffffffff1660e01b81526004016120109190613345565b60206040518083038186803b15801561202857600080fd5b505afa15801561203c573d6000803e3d6000fd5b505050506040513d601f19601f820116820180604052508101906120609190612cf6565b61209f576040517f08c379a000000000000000000000000000000000000000000000000000000000815260040161209690613527565b60405180910390fd5b6000801b600a60003373ffffffffffffffffffffffffffffffffffffffff1673ffffffffffffffffffffffffffffffffffffffff168152602001908152602001600020541415612124576040517f08c379a000000000000000000000000000000000000000000000000000000000815260040161211b90613607565b60405180910390fd5b6000600a60003373ffffffffffffffffffffffffffffffffffffffff1673ffffffffffffffffffffffffffffffffffffffff168152602001908152602001600020549050600a60003373ffffffffffffffffffffffffffffffffffffffff1673ffffffffffffffffffffffffffffffffffffffff1681526020019081526020016000206000905560006121b682612312565b905060038160010160016101000a81548160ff021916908360068111156121e0576121df6139a7565b5b0217905550600260009054906101000a900473ffffffffffffffffffffffffffffffffffffffff1673ffffffffffffffffffffffffffffffffffffffff1663b4de3e23836040518263ffffffff1660e01b8152600401612240919061343b565b600060405180830381600087803b15801561225a57600080fd5b505af115801561226e573d6000803e3d6000fd5b505050505050565b600b6020528060005260406000206000915090505481565b6122966127a3565b600073ffffffffffffffffffffffffffffffffffffffff168173ffffffffffffffffffffffffffffffffffffffff161415612306576040517f08c379a00000000000000000000000000000000000000000000000000000000081526004016122fd906134e7565b60405180910390fd5b61230f81612821565b50565b60008073ffffffffffffffffffffffffffffffffffffffff166008600084815260200190815260200160002060009054906101000a900473ffffffffffffffffffffffffffffffffffffffff1673ffffffffffffffffffffffffffffffffffffffff1614156123b6576040517f08c379a00000000000000000000000000000000000000000000000000000000081526004016123ad90613627565b60405180910390fd5b60006008600084815260200190815260200160002060009054906101000a900473ffffffffffffffffffffffffffffffffffffffff169050600760008273ffffffffffffffffffffffffffffffffffffffff1673ffffffffffffffffffffffffffffffffffffffff168152602001908152602001600020600084815260200190815260200160002060040160009054906101000a900460ff1661248e576040517f08c379a000000000000000000000000000000000000000000000000000000000815260040161248590613567565b60405180910390fd5b600760008273ffffffffffffffffffffffffffffffffffffffff1673ffffffffffffffffffffffffffffffffffffffff1681526020019081526020016000206000848152602001908152602001600020915050919050565b600060405180604001604052808481526020018360ff16815250905060096000858152602001908152602001600020819080600181540180825580915050600190039060005260206000209060020201600090919091909150600082015181600001908051906020019061255b9291906128ed565b5060208201518160010160006101000a81548160ff021916908360ff160217905550505050505050565b61258d6129dc565b600760008373ffffffffffffffffffffffffffffffffffffffff1673ffffffffffffffffffffffffffffffffffffffff168152602001908152602001600020600084815260200190815260200160002060040160009054906101000a900460ff1661262d576040517f08c379a000000000000000000000000000000000000000000000000000000000815260040161262490613567565b60405180910390fd5b6126356129dc565b60005b60058160ff161015612798576000600960008781526020019081526020016000208260ff168154811061266e5761266d613a05565b5b9060005260206000209060020201600001805461268a906138bd565b80601f01602080910402602001604051908101604052809291908181526020018280546126b6906138bd565b80156127035780601f106126d857610100808354040283529160200191612703565b820191906000526020600020905b8154815290600101906020018083116126e657829003601f168201915b505050505090506000600960008881526020019081526020016000208360ff168154811061273457612733613a05565b5b906000526020600020906002020160010160009054906101000a900460ff16905060405180604001604052808381526020018260ff16815250848460ff166005811061278357612782613a05565b5b60200201819052508260010192505050612638565b508091505092915050565b6127ab6128e5565b73ffffffffffffffffffffffffffffffffffffffff166127c961191f565b73ffffffffffffffffffffffffffffffffffffffff161461281f576040517f08c379a000000000000000000000000000000000000000000000000000000000815260040161281690613587565b60405180910390fd5b565b60008060009054906101000a900473ffffffffffffffffffffffffffffffffffffffff169050816000806101000a81548173ffffffffffffffffffffffffffffffffffffffff021916908373ffffffffffffffffffffffffffffffffffffffff1602179055508173ffffffffffffffffffffffffffffffffffffffff168173ffffffffffffffffffffffffffffffffffffffff167f8be0079c531659141344cd1fd0a4f28419497f9722a3daafe3b4186f6b6457e060405160405180910390a35050565b600033905090565b8280546128f9906138bd565b90600052602060002090601f01602090048101928261291b5760008555612962565b82601f1061293457805160ff1916838001178555612962565b82800160010185558215612962579182015b82811115612961578251825591602001919060010190612946565b5b50905061296f9190612a09565b5090565b6040518060e0016040528060008019168152602001600060ff168152602001600060068111156129a6576129a56139a7565b5b8152602001600060038111156129bf576129be6139a7565b5b815260200160608152602001600081526020016000151581525090565b6040518060a001604052806005905b6129f3612a26565b8152602001906001900390816129eb5790505090565b5b80821115612a22576000816000905550600101612a0a565b5090565b604051806040016040528060608152602001600060ff1681525090565b6000612a56612a51846136ae565b613689565b90508083825260208201905082856020860282011115612a7957612a78613a68565b5b60005b85811015612aa95781612a8f8882612bcf565b845260208401935060208301925050600181019050612a7c565b5050509392505050565b6000612ac6612ac1846136da565b613689565b905082815260208101848484011115612ae257612ae1613a6d565b5b612aed84828561387b565b509392505050565b600081359050612b0481613db8565b92915050565b600082601f830112612b1f57612b1e613a63565b5b8135612b2f848260208601612a43565b91505092915050565b600081519050612b4781613dcf565b92915050565b600081359050612b5c81613de6565b92915050565b600081519050612b7181613de6565b92915050565b600081359050612b8681613dfd565b92915050565b600082601f830112612ba157612ba0613a63565b5b8135612bb1848260208601612ab3565b91505092915050565b600081519050612bc981613e0d565b92915050565b600081359050612bde81613e24565b92915050565b600060208284031215612bfa57612bf9613a77565b5b6000612c0884828501612af5565b91505092915050565b60008060408385031215612c2857612c27613a77565b5b6000612c3685828601612af5565b9250506020612c4785828601612b4d565b9150509250929050565b60008060408385031215612c6857612c67613a77565b5b6000612c7685828601612af5565b925050602083013567ffffffffffffffff811115612c9757612c96613a72565b5b612ca385828601612b8c565b9150509250929050565b600060208284031215612cc357612cc2613a77565b5b600082013567ffffffffffffffff811115612ce157612ce0613a72565b5b612ced84828501612b0a565b91505092915050565b600060208284031215612d0c57612d0b613a77565b5b6000612d1a84828501612b38565b91505092915050565b600060208284031215612d3957612d38613a77565b5b6000612d4784828501612b4d565b91505092915050565b600060208284031215612d6657612d65613a77565b5b6000612d7484828501612b62565b91505092915050565b60008060408385031215612d9457612d93613a77565b5b6000612da285828601612b4d565b9250506020612db385828601612b77565b9150509250929050565b600060208284031215612dd357612dd2613a77565b5b6000612de184828501612bba565b91505092915050565b6000612df6838361320f565b905092915050565b612e078161379c565b82525050565b612e1e612e198261379c565b61394a565b82525050565b6000612e2f82613715565b612e398185613738565b935083602082028501612e4b8561370b565b8060005b85811015612e875784840389528151612e688582612dea565b9450612e738361372b565b925060208a01995050600181019050612e4f565b50829750879550505050505092915050565b612ea2816137ae565b82525050565b612eb1816137ae565b82525050565b612ec0816137ba565b82525050565b612ecf816137ba565b82525050565b612ede81613821565b82525050565b612eed81613833565b82525050565b612efc81613833565b82525050565b612f0b81613845565b82525050565b612f1a81613845565b82525050565b6000612f2b82613720565b612f358185613743565b9350612f4581856020860161388a565b612f4e81613a7c565b840191505092915050565b6000612f6482613720565b612f6e8185613754565b9350612f7e81856020860161388a565b612f8781613a7c565b840191505092915050565b6000612f9f602683613754565b9150612faa82613a9a565b604082019050919050565b6000612fc2602d83613754565b9150612fcd82613ae9565b604082019050919050565b6000612fe5602383613754565b9150612ff082613b38565b604082019050919050565b6000613008602483613754565b915061301382613b87565b604082019050919050565b600061302b601783613754565b915061303682613bd6565b602082019050919050565b600061304e602083613754565b915061305982613bff565b602082019050919050565b6000613071602483613754565b915061307c82613c28565b604082019050919050565b6000613094601983613754565b915061309f82613c77565b602082019050919050565b60006130b7601c83613754565b91506130c282613ca0565b602082019050919050565b60006130da602083613754565b91506130e582613cc9565b602082019050919050565b60006130fd601783613754565b915061310882613cf2565b602082019050919050565b6000613120604f83613754565b915061312b82613d1b565b606082019050919050565b600060408301600083015184820360008601526131538282612f20565b91505060208301516131686020860182612e99565b508091505092915050565b600060e08301600083015161318b6000860182612eb7565b50602083015161319e60208601826132fb565b5060408301516131b16040860182612ee4565b5060608301516131c46060860182612f02565b50608083015184820360808601526131dc8282612f20565b91505060a08301516131f160a08601826132c6565b5060c083015161320460c0860182612e99565b508091505092915050565b6000604083016000830151848203600086015261322c8282612f20565b915050602083015161324160208601826132fb565b508091505092915050565b600060408301600083015184820360008601526132698282612f20565b915050602083015161327e6020860182612e99565b508091505092915050565b600060408301600083015184820360008601526132a68282612f20565b91505060208301516132bb6020860182612e99565b508091505092915050565b6132cf8161380a565b82525050565b6132de8161380a565b82525050565b6132f56132f08261380a565b61396e565b82525050565b61330481613814565b82525050565b61331381613814565b82525050565b60006133258285612e0d565b60148201915061333582846132e4565b6020820191508190509392505050565b600060208201905061335a6000830184612dfe565b92915050565b60006040820190506133756000830185612dfe565b6133826020830184612ec6565b9392505050565b600060408201905061339e6000830185612dfe565b81810360208301526133b08184613136565b90509392505050565b60006040820190506133ce6000830185612dfe565b81810360208301526133e0818461324c565b90509392505050565b60006040820190506133fe6000830185612dfe565b81810360208301526134108184613289565b90509392505050565b600060208201905081810360008301526134338184612e24565b905092915050565b60006020820190506134506000830184612ec6565b92915050565b600060e08201905061346b600083018a612ec6565b613478602083018961330a565b6134856040830188612ef3565b6134926060830187612f11565b81810360808301526134a48186612f59565b90506134b360a08301856132d5565b6134c060c0830184612ea8565b98975050505050505050565b60006020820190506134e16000830184612ed5565b92915050565b6000602082019050818103600083015261350081612f92565b9050919050565b6000602082019050818103600083015261352081612fb5565b9050919050565b6000602082019050818103600083015261354081612fd8565b9050919050565b6000602082019050818103600083015261356081612ffb565b9050919050565b600060208201905081810360008301526135808161301e565b9050919050565b600060208201905081810360008301526135a081613041565b9050919050565b600060208201905081810360008301526135c081613064565b9050919050565b600060208201905081810360008301526135e081613087565b9050919050565b60006020820190508181036000830152613600816130aa565b9050919050565b60006020820190508181036000830152613620816130cd565b9050919050565b60006020820190508181036000830152613640816130f0565b9050919050565b6000602082019050818103600083015261366081613113565b9050919050565b600060208201905081810360008301526136818184613173565b905092915050565b60006136936136a4565b905061369f82826138ef565b919050565b6000604051905090565b600067ffffffffffffffff8211156136c9576136c8613a34565b5b602082029050602081019050919050565b600067ffffffffffffffff8211156136f5576136f4613a34565b5b6136fe82613a7c565b9050602081019050919050565b6000819050919050565b600060059050919050565b600081519050919050565b6000602082019050919050565b600081905092915050565b600082825260208201905092915050565b600082825260208201905092915050565b600061377082613814565b915061377b83613814565b92508260ff0382111561379157613790613978565b5b828201905092915050565b60006137a7826137ea565b9050919050565b60008115159050919050565b6000819050919050565b60008190506137d282613d90565b919050565b60008190506137e582613da4565b919050565b600073ffffffffffffffffffffffffffffffffffffffff82169050919050565b6000819050919050565b600060ff82169050919050565b600061382c82613857565b9050919050565b600061383e826137c4565b9050919050565b6000613850826137d7565b9050919050565b600061386282613869565b9050919050565b6000613874826137ea565b9050919050565b82818337600083830152505050565b60005b838110156138a857808201518184015260208101905061388d565b838111156138b7576000848401525b50505050565b600060028204905060018216806138d557607f821691505b602082108114156138e9576138e86139d6565b5b50919050565b6138f882613a7c565b810181811067ffffffffffffffff8211171561391757613916613a34565b5b80604052505050565b600061392b82613814565b915060ff82141561393f5761393e613978565b5b600182019050919050565b60006139558261395c565b9050919050565b600061396782613a8d565b9050919050565b6000819050919050565b7f4e487b7100000000000000000000000000000000000000000000000000000000600052601160045260246000fd5b7f4e487b7100000000000000000000000000000000000000000000000000000000600052602160045260246000fd5b7f4e487b7100000000000000000000000000000000000000000000000000000000600052602260045260246000fd5b7f4e487b7100000000000000000000000000000000000000000000000000000000600052603260045260246000fd5b7f4e487b7100000000000000000000000000000000000000000000000000000000600052604160045260246000fd5b600080fd5b600080fd5b600080fd5b600080fd5b600080fd5b6000601f19601f8301169050919050565b60008160601b9050919050565b7f4f776e61626c653a206e6577206f776e657220697320746865207a65726f206160008201527f6464726573730000000000000000000000000000000000000000000000000000602082015250565b7f496e76616c696420726561736f6e2e20506c656173652070726f76696465206160008201527f2076616c696420696e7075742e00000000000000000000000000000000000000602082015250565b7f596f75206172656e277420612076616c69642077617265686f75736520776f7260008201527f6b65720000000000000000000000000000000000000000000000000000000000602082015250565b7f596f75206172656e277420612076616c6964206469737061746368657220776f60008201527f726b657200000000000000000000000000000000000000000000000000000000602082015250565b7f546865206f7264657220646f65736e2774206578697374000000000000000000600082015250565b7f4f776e61626c653a2063616c6c6572206973206e6f7420746865206f776e6572600082015250565b7f4e6f2076616c6964206f7264657220666f756e6420696e20636c69656e74207160008201527f7565756500000000000000000000000000000000000000000000000000000000602082015250565b7f596f75206172656e277420612076616c696420636c69656e7400000000000000600082015250565b7f546865206f726465722063616e6e27742062652063616e63656c656400000000600082015250565b7f596f7520646f6e2774206861766520616e2061737369676e6564206f72646572600082015250565b7f546865206f776e657220646f65736e2774206578697374000000000000000000600082015250565b7f546865206f72646572206d75737420626520696e2044454c495645524544207360008201527f746174757320746f206265206d61726b6564206173207265636569766564207760208201527f6974682064697363726570616e63790000000000000000000000000000000000604082015250565b60078110613da157613da06139a7565b5b50565b60048110613db557613db46139a7565b5b50565b613dc18161379c565b8114613dcc57600080fd5b50565b613dd8816137ae565b8114613de357600080fd5b50565b613def816137ba565b8114613dfa57600080fd5b50565b60048110613e0a57600080fd5b50565b613e168161380a565b8114613e2157600080fd5b50565b613e2d81613814565b8114613e3857600080fd5b5056fea2646970667358221220f715b087d01f8ecb05ddeb6db18e661a34f128460fbbd696fb3c8e5f8d57412b64736f6c63430008070033608060405234801561001057600080fd5b5061002d61002261004a60201b60201c565b61005260201b60201c565b600060028190555060006003819055506000600481905550610116565b600033905090565b60008060009054906101000a900473ffffffffffffffffffffffffffffffffffffffff169050816000806101000a81548173ffffffffffffffffffffffffffffffffffffffff021916908373ffffffffffffffffffffffffffffffffffffffff1602179055508173ffffffffffffffffffffffffffffffffffffffff168173ffffffffffffffffffffffffffffffffffffffff167f8be0079c531659141344cd1fd0a4f28419497f9722a3daafe3b4186f6b6457e060405160405180910390a35050565b610a95806101256000396000f3fe608060405234801561001057600080fd5b506004361061007d5760003560e01c8063a47ce1661161005b578063a47ce166146100c8578063b4de3e23146100f8578063de8fa43114610114578063f2fde38b146101325761007d565b8063715018a6146100825780638da5cb5b1461008c578063957908d1146100aa575b600080fd5b61008a61014e565b005b610094610162565b6040516100a191906106fa565b60405180910390f35b6100b261018b565b6040516100bf9190610730565b60405180910390f35b6100e260048036038101906100dd9190610628565b61027e565b6040516100ef9190610715565b60405180910390f35b610112600480360381019061010d9190610628565b610320565b005b61011c6103af565b60405161012991906107ab565b60405180910390f35b61014c600480360381019061014791906105fb565b6103c1565b005b610156610445565b61016060006104c3565b565b60008060009054906101000a900473ffffffffffffffffffffffffffffffffffffffff16905090565b6000610195610445565b6000600454116101da576040517f08c379a00000000000000000000000000000000000000000000000000000000081526004016101d19061074b565b60405180910390fd5b6000600160006002548152602001908152602001600020549050600160006002548152602001908152602001600020600090556102557fffffffffffffffffffffffffffffffffffffffffffffffffffffffffffffffff610247600160025461058790919063ffffffff16565b61059d90919063ffffffff16565b60028190555061027160016004546105b390919063ffffffff16565b6004819055508091505090565b600080600090505b6004548110156103155760006102d97fffffffffffffffffffffffffffffffffffffffffffffffffffffffffffffffff6102cb8460025461058790919063ffffffff16565b61059d90919063ffffffff16565b905083600160008381526020019081526020016000205414156103015760019250505061031b565b50808061030d906108b3565b915050610286565b50600090505b919050565b610328610445565b806001600060035481526020019081526020016000208190555061038a7fffffffffffffffffffffffffffffffffffffffffffffffffffffffffffffffff61037c600160035461058790919063ffffffff16565b61059d90919063ffffffff16565b6003819055506103a6600160045461058790919063ffffffff16565b60048190555050565b60006103b9610445565b600454905090565b6103c9610445565b600073ffffffffffffffffffffffffffffffffffffffff168173ffffffffffffffffffffffffffffffffffffffff161415610439576040517f08c379a00000000000000000000000000000000000000000000000000000000081526004016104309061076b565b60405180910390fd5b610442816104c3565b50565b61044d6105c9565b73ffffffffffffffffffffffffffffffffffffffff1661046b610162565b73ffffffffffffffffffffffffffffffffffffffff16146104c1576040517f08c379a00000000000000000000000000000000000000000000000000000000081526004016104b89061078b565b60405180910390fd5b565b60008060009054906101000a900473ffffffffffffffffffffffffffffffffffffffff169050816000806101000a81548173ffffffffffffffffffffffffffffffffffffffff021916908373ffffffffffffffffffffffffffffffffffffffff1602179055508173ffffffffffffffffffffffffffffffffffffffff168173ffffffffffffffffffffffffffffffffffffffff167f8be0079c531659141344cd1fd0a4f28419497f9722a3daafe3b4186f6b6457e060405160405180910390a35050565b6000818361059591906107d7565b905092915050565b600081836105ab91906108fc565b905092915050565b600081836105c1919061082d565b905092915050565b600033905090565b6000813590506105e081610a31565b92915050565b6000813590506105f581610a48565b92915050565b6000602082840312156106115761061061098b565b5b600061061f848285016105d1565b91505092915050565b60006020828403121561063e5761063d61098b565b5b600061064c848285016105e6565b91505092915050565b61065e81610861565b82525050565b61066d81610873565b82525050565b61067c8161087f565b82525050565b600061068f600e836107c6565b915061069a82610990565b602082019050919050565b60006106b26026836107c6565b91506106bd826109b9565b604082019050919050565b60006106d56020836107c6565b91506106e082610a08565b602082019050919050565b6106f4816108a9565b82525050565b600060208201905061070f6000830184610655565b92915050565b600060208201905061072a6000830184610664565b92915050565b60006020820190506107456000830184610673565b92915050565b6000602082019050818103600083015261076481610682565b9050919050565b60006020820190508181036000830152610784816106a5565b9050919050565b600060208201905081810360008301526107a4816106c8565b9050919050565b60006020820190506107c060008301846106eb565b92915050565b600082825260208201905092915050565b60006107e2826108a9565b91506107ed836108a9565b9250827fffffffffffffffffffffffffffffffffffffffffffffffffffffffffffffffff038211156108225761082161092d565b5b828201905092915050565b6000610838826108a9565b9150610843836108a9565b9250828210156108565761085561092d565b5b828203905092915050565b600061086c82610889565b9050919050565b60008115159050919050565b6000819050919050565b600073ffffffffffffffffffffffffffffffffffffffff82169050919050565b6000819050919050565b60006108be826108a9565b91507fffffffffffffffffffffffffffffffffffffffffffffffffffffffffffffffff8214156108f1576108f061092d565b5b600182019050919050565b6000610907826108a9565b9150610912836108a9565b9250826109225761092161095c565b5b828206905092915050565b7f4e487b7100000000000000000000000000000000000000000000000000000000600052601160045260246000fd5b7f4e487b7100000000000000000000000000000000000000000000000000000000600052601260045260246000fd5b600080fd5b7f517565756520697320656d707479000000000000000000000000000000000000600082015250565b7f4f776e61626c653a206e6577206f776e657220697320746865207a65726f206160008201527f6464726573730000000000000000000000000000000000000000000000000000602082015250565b7f4f776e61626c653a2063616c6c6572206973206e6f7420746865206f776e6572600082015250565b610a3a81610861565b8114610a4557600080fd5b50565b610a518161087f565b8114610a5c57600080fd5b5056fea26469706673582212201a218addb9e873dbb5afa771126600745d4903a2275a88cdd2545ec1b15065bd64736f6c63430008070033608060405234801561001057600080fd5b50610762806100206000396000f3fe608060405234801561001057600080fd5b50600436106100415760003560e01c80634dfefc4b146100465780637d404b5f14610076578063bc1cc0c014610092575b600080fd5b610060600480360381019061005b9190610400565b6100c3565b60405161006d91906104d1565b60405180910390f35b610090600480360381019061008b919061042d565b61011b565b005b6100ac60048036038101906100a79190610400565b61019e565b6040516100ba9291906104ec565b60405180910390f35b60008060008373ffffffffffffffffffffffffffffffffffffffff1673ffffffffffffffffffffffffffffffffffffffff16815260200190815260200160002060010160009054906101000a900460ff169050919050565b806000808473ffffffffffffffffffffffffffffffffffffffff1673ffffffffffffffffffffffffffffffffffffffff1681526020019081526020016000206000820151816000019080519060200190610176929190610257565b5060208201518160010160006101000a81548160ff0219169083151502179055509050505050565b60006020528060005260406000206000915090508060000180546101c19061060e565b80601f01602080910402602001604051908101604052809291908181526020018280546101ed9061060e565b801561023a5780601f1061020f5761010080835404028352916020019161023a565b820191906000526020600020905b81548152906001019060200180831161021d57829003601f168201915b5050505050908060010160009054906101000a900460ff16905082565b8280546102639061060e565b90600052602060002090601f01602090048101928261028557600085556102cc565b82601f1061029e57805160ff19168380011785556102cc565b828001600101855582156102cc579182015b828111156102cb5782518255916020019190600101906102b0565b5b5090506102d991906102dd565b5090565b5b808211156102f65760008160009055506001016102de565b5090565b600061030d61030884610541565b61051c565b905082815260208101848484011115610329576103286106de565b5b6103348482856105cc565b509392505050565b60008135905061034b816106fe565b92915050565b60008135905061036081610715565b92915050565b600082601f83011261037b5761037a6106cf565b5b813561038b8482602086016102fa565b91505092915050565b6000604082840312156103aa576103a96106d4565b5b6103b4604061051c565b9050600082013567ffffffffffffffff8111156103d4576103d36106d9565b5b6103e084828501610366565b60008301525060206103f484828501610351565b60208301525092915050565b600060208284031215610416576104156106e8565b5b60006104248482850161033c565b91505092915050565b60008060408385031215610444576104436106e8565b5b60006104528582860161033c565b925050602083013567ffffffffffffffff811115610473576104726106e3565b5b61047f85828601610394565b9150509250929050565b610492816105a0565b82525050565b60006104a382610572565b6104ad818561057d565b93506104bd8185602086016105db565b6104c6816106ed565b840191505092915050565b60006020820190506104e66000830184610489565b92915050565b600060408201905081810360008301526105068185610498565b90506105156020830184610489565b9392505050565b6000610526610537565b90506105328282610640565b919050565b6000604051905090565b600067ffffffffffffffff82111561055c5761055b6106a0565b5b610565826106ed565b9050602081019050919050565b600081519050919050565b600082825260208201905092915050565b6000610599826105ac565b9050919050565b60008115159050919050565b600073ffffffffffffffffffffffffffffffffffffffff82169050919050565b82818337600083830152505050565b60005b838110156105f95780820151818401526020810190506105de565b83811115610608576000848401525b50505050565b6000600282049050600182168061062657607f821691505b6020821081141561063a57610639610671565b5b50919050565b610649826106ed565b810181811067ffffffffffffffff82111715610668576106676106a0565b5b80604052505050565b7f4e487b7100000000000000000000000000000000000000000000000000000000600052602260045260246000fd5b7f4e487b7100000000000000000000000000000000000000000000000000000000600052604160045260246000fd5b600080fd5b600080fd5b600080fd5b600080fd5b600080fd5b600080fd5b6000601f19601f8301169050919050565b6107078161058e565b811461071257600080fd5b50565b61071e816105a0565b811461072957600080fd5b5056fea264697066735822122056fd0f2ead1d7787640b1780193b655ed32fd4f05f2e5c1968533b9b5a21770864736f6c63430008070033608060405234801561001057600080fd5b50610762806100206000396000f3fe608060405234801561001057600080fd5b50600436106100415760003560e01c80634dfefc4b14610046578063b434f2ad14610076578063d07f1194146100a7575b600080fd5b610060600480360381019061005b9190610400565b6100c3565b60405161006d91906104d1565b60405180910390f35b610090600480360381019061008b9190610400565b61011b565b60405161009e9291906104ec565b60405180910390f35b6100c160048036038101906100bc919061042d565b6101d4565b005b60008060008373ffffffffffffffffffffffffffffffffffffffff1673ffffffffffffffffffffffffffffffffffffffff16815260200190815260200160002060010160009054906101000a900460ff169050919050565b600060205280600052604060002060009150905080600001805461013e9061060e565b80601f016020809104026020016040519081016040528092919081815260200182805461016a9061060e565b80156101b75780601f1061018c576101008083540402835291602001916101b7565b820191906000526020600020905b81548152906001019060200180831161019a57829003601f168201915b5050505050908060010160009054906101000a900460ff16905082565b806000808473ffffffffffffffffffffffffffffffffffffffff1673ffffffffffffffffffffffffffffffffffffffff168152602001908152602001600020600082015181600001908051906020019061022f929190610257565b5060208201518160010160006101000a81548160ff0219169083151502179055509050505050565b8280546102639061060e565b90600052602060002090601f01602090048101928261028557600085556102cc565b82601f1061029e57805160ff19168380011785556102cc565b828001600101855582156102cc579182015b828111156102cb5782518255916020019190600101906102b0565b5b5090506102d991906102dd565b5090565b5b808211156102f65760008160009055506001016102de565b5090565b600061030d61030884610541565b61051c565b905082815260208101848484011115610329576103286106de565b5b6103348482856105cc565b509392505050565b60008135905061034b816106fe565b92915050565b60008135905061036081610715565b92915050565b600082601f83011261037b5761037a6106cf565b5b813561038b8482602086016102fa565b91505092915050565b6000604082840312156103aa576103a96106d4565b5b6103b4604061051c565b9050600082013567ffffffffffffffff8111156103d4576103d36106d9565b5b6103e084828501610366565b60008301525060206103f484828501610351565b60208301525092915050565b600060208284031215610416576104156106e8565b5b60006104248482850161033c565b91505092915050565b60008060408385031215610444576104436106e8565b5b60006104528582860161033c565b925050602083013567ffffffffffffffff811115610473576104726106e3565b5b61047f85828601610394565b9150509250929050565b610492816105a0565b82525050565b60006104a382610572565b6104ad818561057d565b93506104bd8185602086016105db565b6104c6816106ed565b840191505092915050565b60006020820190506104e66000830184610489565b92915050565b600060408201905081810360008301526105068185610498565b90506105156020830184610489565b9392505050565b6000610526610537565b90506105328282610640565b919050565b6000604051905090565b600067ffffffffffffffff82111561055c5761055b6106a0565b5b610565826106ed565b9050602081019050919050565b600081519050919050565b600082825260208201905092915050565b6000610599826105ac565b9050919050565b60008115159050919050565b600073ffffffffffffffffffffffffffffffffffffffff82169050919050565b82818337600083830152505050565b60005b838110156105f95780820151818401526020810190506105de565b83811115610608576000848401525b50505050565b6000600282049050600182168061062657607f821691505b6020821081141561063a57610639610671565b5b50919050565b610649826106ed565b810181811067ffffffffffffffff82111715610668576106676106a0565b5b80604052505050565b7f4e487b7100000000000000000000000000000000000000000000000000000000600052602260045260246000fd5b7f4e487b7100000000000000000000000000000000000000000000000000000000600052604160045260246000fd5b600080fd5b600080fd5b600080fd5b600080fd5b600080fd5b600080fd5b6000601f19601f8301169050919050565b6107078161058e565b811461071257600080fd5b50565b61071e816105a0565b811461072957600080fd5b5056fea2646970667358221220085c889cbd2e92e14689ec1e9cd9c966314f64c8f7430e526e6f39041139887064736f6c63430008070033608060405234801561001057600080fd5b50610762806100206000396000f3fe608060405234801561001057600080fd5b50600436106100415760003560e01c80634dfefc4b1461004657806361eed2a9146100765780636d002ada146100a7575b600080fd5b610060600480360381019061005b9190610400565b6100c3565b60405161006d91906104d1565b60405180910390f35b610090600480360381019061008b9190610400565b61011b565b60405161009e9291906104ec565b60405180910390f35b6100c160048036038101906100bc919061042d565b6101d4565b005b60008060008373ffffffffffffffffffffffffffffffffffffffff1673ffffffffffffffffffffffffffffffffffffffff16815260200190815260200160002060010160009054906101000a900460ff169050919050565b600060205280600052604060002060009150905080600001805461013e9061060e565b80601f016020809104026020016040519081016040528092919081815260200182805461016a9061060e565b80156101b75780601f1061018c576101008083540402835291602001916101b7565b820191906000526020600020905b81548152906001019060200180831161019a57829003601f168201915b5050505050908060010160009054906101000a900460ff16905082565b806000808473ffffffffffffffffffffffffffffffffffffffff1673ffffffffffffffffffffffffffffffffffffffff168152602001908152602001600020600082015181600001908051906020019061022f929190610257565b5060208201518160010160006101000a81548160ff0219169083151502179055509050505050565b8280546102639061060e565b90600052602060002090601f01602090048101928261028557600085556102cc565b82601f1061029e57805160ff19168380011785556102cc565b828001600101855582156102cc579182015b828111156102cb5782518255916020019190600101906102b0565b5b5090506102d991906102dd565b5090565b5b808211156102f65760008160009055506001016102de565b5090565b600061030d61030884610541565b61051c565b905082815260208101848484011115610329576103286106de565b5b6103348482856105cc565b509392505050565b60008135905061034b816106fe565b92915050565b60008135905061036081610715565b92915050565b600082601f83011261037b5761037a6106cf565b5b813561038b8482602086016102fa565b91505092915050565b6000604082840312156103aa576103a96106d4565b5b6103b4604061051c565b9050600082013567ffffffffffffffff8111156103d4576103d36106d9565b5b6103e084828501610366565b60008301525060206103f484828501610351565b60208301525092915050565b600060208284031215610416576104156106e8565b5b60006104248482850161033c565b91505092915050565b60008060408385031215610444576104436106e8565b5b60006104528582860161033c565b925050602083013567ffffffffffffffff811115610473576104726106e3565b5b61047f85828601610394565b9150509250929050565b610492816105a0565b82525050565b60006104a382610572565b6104ad818561057d565b93506104bd8185602086016105db565b6104c6816106ed565b840191505092915050565b60006020820190506104e66000830184610489565b92915050565b600060408201905081810360008301526105068185610498565b90506105156020830184610489565b9392505050565b6000610526610537565b90506105328282610640565b919050565b6000604051905090565b600067ffffffffffffffff82111561055c5761055b6106a0565b5b610565826106ed565b9050602081019050919050565b600081519050919050565b600082825260208201905092915050565b6000610599826105ac565b9050919050565b60008115159050919050565b600073ffffffffffffffffffffffffffffffffffffffff82169050919050565b82818337600083830152505050565b60005b838110156105f95780820151818401526020810190506105de565b83811115610608576000848401525b50505050565b6000600282049050600182168061062657607f821691505b6020821081141561063a57610639610671565b5b50919050565b610649826106ed565b810181811067ffffffffffffffff82111715610668576106676106a0565b5b80604052505050565b7f4e487b7100000000000000000000000000000000000000000000000000000000600052602260045260246000fd5b7f4e487b7100000000000000000000000000000000000000000000000000000000600052604160045260246000fd5b600080fd5b600080fd5b600080fd5b600080fd5b600080fd5b600080fd5b6000601f19601f8301169050919050565b6107078161058e565b811461071257600080fd5b50565b61071e816105a0565b811461072957600080fd5b5056fea2646970667358221220f1398ea0e8cef0c678616d88f53eccc57ef5cf57b3f571045d4f5ff9d68114ba64736f6c63430008070033",
  "devdoc": {
    "kind": "dev",
    "methods": {
      "addOrderToPreparationStage()": {
        "details": "Function to add an order in preparation stage"
      },
      "cancelOrder(bytes32)": {
        "details": "Function to cancel an Order",
        "params": {
          "orderId": "order's id"
        }
      },
      "createClient(address,string)": {
        "details": "Function to create a new client",
        "params": {
          "_clientAddress": "is the address of the client",
          "_name": "of the client"
        }
      },
      "createDispatcherWorker(address,string)": {
        "details": "Function to create a new dispatcher worker",
        "params": {
          "_name": "of the worker",
          "_worker": "is the address of the worker"
        }
      },
      "createOrder(uint8[])": {
        "details": "Function to create an Order",
        "params": {
          "quantities": "array with quantities of each product"
        }
      },
      "createWarehouseWorker(address,string)": {
        "details": "Function to create a new warehouse worker",
        "params": {
          "_name": "of the worker",
          "_worker": "is the address of the worker"
        }
      },
      "deliverOrder()": {
        "details": "Function to mark an order as delivered"
      },
      "dispatchOrder()": {
        "details": "Function to take an order and dispatch it"
      },
      "getOrder(bytes32)": {
        "details": "Function to get an Order",
        "params": {
          "orderId": "order's id"
        }
      },
      "getProductsByClient(bytes32)": {
        "details": "Function to get products from an order",
        "params": {
          "orderId": "order's id"
        }
      },
      "markOrderAsReceivedWithDiscrepancy(bytes32,uint8)": {
        "details": "Function to notify the status in which an order was received",
        "params": {
          "orderId": "order's id",
          "reason": "reason for discrepancy"
        }
      },
      "moveOrderToDeliverStage()": {
        "details": "Function to move an order to deliver stagea"
      },
      "owner()": {
        "details": "Returns the address of the current owner."
      },
      "renounceOwnership()": {
        "details": "Leaves the contract without owner. It will not be possible to call `onlyOwner` functions. Can only be called by the current owner. NOTE: Renouncing ownership will leave the contract without an owner, thereby disabling any functionality that is only available to the owner."
      },
      "transferOwnership(address)": {
        "details": "Transfers ownership of the contract to a new account (`newOwner`). Can only be called by the current owner."
      },
      "verifyOrder(bytes32)": {
        "details": "Function to confirm that an order has been received",
        "params": {
          "orderId": "order's id"
        }
      }
    },
    "version": 1
  },
  "userdoc": {
    "kind": "user",
    "methods": {},
    "version": 1
  },
  "storageLayout": {
    "storage": [
      {
        "astId": 7,
        "contract": "contracts/App.sol:App",
        "label": "_owner",
        "offset": 0,
        "slot": "0",
        "type": "t_address"
      },
      {
        "astId": 458,
        "contract": "contracts/App.sol:App",
        "label": "pendingOrdersQueue",
        "offset": 0,
        "slot": "1",
        "type": "t_contract(Queue)1667"
      },
      {
        "astId": 461,
        "contract": "contracts/App.sol:App",
        "label": "dispatchedOrdersQueue",
        "offset": 0,
        "slot": "2",
        "type": "t_contract(Queue)1667"
      },
      {
        "astId": 464,
        "contract": "contracts/App.sol:App",
        "label": "warehouse",
        "offset": 0,
        "slot": "3",
        "type": "t_contract(Warehouse)1712"
      },
      {
        "astId": 467,
        "contract": "contracts/App.sol:App",
        "label": "dispatcher",
        "offset": 0,
        "slot": "4",
        "type": "t_contract(Dispatcher)1489"
      },
      {
        "astId": 470,
        "contract": "contracts/App.sol:App",
        "label": "client",
        "offset": 0,
        "slot": "5",
        "type": "t_contract(Client)1444"
      },
      {
        "astId": 473,
        "contract": "contracts/App.sol:App",
        "label": "skus",
        "offset": 0,
        "slot": "6",
        "type": "t_array(t_string_storage)dyn_storage"
      },
      {
        "astId": 506,
        "contract": "contracts/App.sol:App",
        "label": "clientToOrders",
        "offset": 0,
        "slot": "7",
        "type": "t_mapping(t_address,t_mapping(t_bytes32,t_struct(Order)559_storage))"
      },
      {
        "astId": 510,
        "contract": "contracts/App.sol:App",
        "label": "orderIdToClientAddress",
        "offset": 0,
        "slot": "8",
        "type": "t_mapping(t_bytes32,t_address)"
      },
      {
        "astId": 516,
        "contract": "contracts/App.sol:App",
        "label": "orderToProducts",
        "offset": 0,
        "slot": "9",
        "type": "t_mapping(t_bytes32,t_array(t_struct(Product)542_storage)dyn_storage)"
      },
      {
        "astId": 520,
        "contract": "contracts/App.sol:App",
        "label": "warehouserToOrderId",
        "offset": 0,
        "slot": "10",
        "type": "t_mapping(t_address,t_bytes32)"
      },
      {
        "astId": 524,
        "contract": "contracts/App.sol:App",
        "label": "dispatcherToOrderId",
        "offset": 0,
        "slot": "11",
        "type": "t_mapping(t_address,t_bytes32)"
      }
    ],
    "types": {
      "t_address": {
        "encoding": "inplace",
        "label": "address",
        "numberOfBytes": "20"
      },
      "t_array(t_string_storage)dyn_storage": {
        "base": "t_string_storage",
        "encoding": "dynamic_array",
        "label": "string[]",
        "numberOfBytes": "32"
      },
      "t_array(t_struct(Product)542_storage)dyn_storage": {
        "base": "t_struct(Product)542_storage",
        "encoding": "dynamic_array",
        "label": "struct App.Product[]",
        "numberOfBytes": "32"
      },
      "t_bool": {
        "encoding": "inplace",
        "label": "bool",
        "numberOfBytes": "1"
      },
      "t_bytes32": {
        "encoding": "inplace",
        "label": "bytes32",
        "numberOfBytes": "32"
      },
      "t_contract(Client)1444": {
        "encoding": "inplace",
        "label": "contract Client",
        "numberOfBytes": "20"
      },
      "t_contract(Dispatcher)1489": {
        "encoding": "inplace",
        "label": "contract Dispatcher",
        "numberOfBytes": "20"
      },
      "t_contract(Queue)1667": {
        "encoding": "inplace",
        "label": "contract Queue",
        "numberOfBytes": "20"
      },
      "t_contract(Warehouse)1712": {
        "encoding": "inplace",
        "label": "contract Warehouse",
        "numberOfBytes": "20"
      },
      "t_enum(OrderStatus)532": {
        "encoding": "inplace",
        "label": "enum App.OrderStatus",
        "numberOfBytes": "1"
      },
      "t_enum(OrderVerification)537": {
        "encoding": "inplace",
        "label": "enum App.OrderVerification",
        "numberOfBytes": "1"
      },
      "t_mapping(t_address,t_bytes32)": {
        "encoding": "mapping",
        "key": "t_address",
        "label": "mapping(address => bytes32)",
        "numberOfBytes": "32",
        "value": "t_bytes32"
      },
      "t_mapping(t_address,t_mapping(t_bytes32,t_struct(Order)559_storage))": {
        "encoding": "mapping",
        "key": "t_address",
        "label": "mapping(address => mapping(bytes32 => struct App.Order))",
        "numberOfBytes": "32",
        "value": "t_mapping(t_bytes32,t_struct(Order)559_storage)"
      },
      "t_mapping(t_bytes32,t_address)": {
        "encoding": "mapping",
        "key": "t_bytes32",
        "label": "mapping(bytes32 => address)",
        "numberOfBytes": "32",
        "value": "t_address"
      },
      "t_mapping(t_bytes32,t_array(t_struct(Product)542_storage)dyn_storage)": {
        "encoding": "mapping",
        "key": "t_bytes32",
        "label": "mapping(bytes32 => struct App.Product[])",
        "numberOfBytes": "32",
        "value": "t_array(t_struct(Product)542_storage)dyn_storage"
      },
      "t_mapping(t_bytes32,t_struct(Order)559_storage)": {
        "encoding": "mapping",
        "key": "t_bytes32",
        "label": "mapping(bytes32 => struct App.Order)",
        "numberOfBytes": "32",
        "value": "t_struct(Order)559_storage"
      },
      "t_string_storage": {
        "encoding": "bytes",
        "label": "string",
        "numberOfBytes": "32"
      },
      "t_struct(Order)559_storage": {
        "encoding": "inplace",
        "label": "struct App.Order",
        "members": [
          {
            "astId": 544,
            "contract": "contracts/App.sol:App",
            "label": "orderId",
            "offset": 0,
            "slot": "0",
            "type": "t_bytes32"
          },
          {
            "astId": 546,
            "contract": "contracts/App.sol:App",
            "label": "itemsQuantity",
            "offset": 0,
            "slot": "1",
            "type": "t_uint8"
          },
          {
            "astId": 549,
            "contract": "contracts/App.sol:App",
            "label": "orderStatus",
            "offset": 1,
            "slot": "1",
            "type": "t_enum(OrderStatus)532"
          },
          {
            "astId": 552,
            "contract": "contracts/App.sol:App",
            "label": "orderVerification",
            "offset": 2,
            "slot": "1",
            "type": "t_enum(OrderVerification)537"
          },
          {
            "astId": 554,
            "contract": "contracts/App.sol:App",
            "label": "observations",
            "offset": 0,
            "slot": "2",
            "type": "t_string_storage"
          },
          {
            "astId": 556,
            "contract": "contracts/App.sol:App",
            "label": "price",
            "offset": 0,
            "slot": "3",
            "type": "t_uint256"
          },
          {
            "astId": 558,
            "contract": "contracts/App.sol:App",
            "label": "exist",
            "offset": 0,
            "slot": "4",
            "type": "t_bool"
          }
        ],
        "numberOfBytes": "160"
      },
      "t_struct(Product)542_storage": {
        "encoding": "inplace",
        "label": "struct App.Product",
        "members": [
          {
            "astId": 539,
            "contract": "contracts/App.sol:App",
            "label": "sku",
            "offset": 0,
            "slot": "0",
            "type": "t_string_storage"
          },
          {
            "astId": 541,
            "contract": "contracts/App.sol:App",
            "label": "quantity",
            "offset": 0,
            "slot": "1",
            "type": "t_uint8"
          }
        ],
        "numberOfBytes": "64"
      },
      "t_uint256": {
        "encoding": "inplace",
        "label": "uint256",
        "numberOfBytes": "32"
      },
      "t_uint8": {
        "encoding": "inplace",
        "label": "uint8",
        "numberOfBytes": "1"
      }
    }
  }
}